No.     Time           Source                Destination           Protocol Length Info
    263 5.433858       2.20.3                host                  USB      2112   URB_BULK in

Frame 263: 2112 bytes on wire (16896 bits), 2112 bytes captured (16896 bits) on interface usbmon2, id 0
USB URB
    [Source: 2.20.3]
    [Destination: host]
    URB id: 0xffff9beec070f540
    URB type: URB_COMPLETE ('C')
    URB transfer type: URB_BULK (0x03)
    Endpoint: 0x83, Direction: IN
    Device: 20
    URB bus id: 2
    Device setup request: not relevant ('-')
    Data: present ('\0')
    URB sec: 1765889875
    URB usec: 447046
    URB status: Success (0)
    URB length [bytes]: 2048
    Data length [bytes]: 2048
    [Request in: 252]
    [Time from request: 0.002614000 seconds]
    [bInterfaceClass: Unknown (0xffff)]
    Unused Setup Header
    Interval: 0
    Start frame: 0
    Copy of Transfer Flags: 0x00000200, Dir IN
    Number of ISO descriptors: 0
Leftover Capture Data […]: 8f98fed10000000000000000000000000000000000000000000000000000000000000000000000000000000000000000000000000000000000000000000000007898fe0900000000000000000000000000000000000000000000000000000000000000000000000000

0000  40 f5 70 c0 ee 9b ff ff 43 03 83 14 02 00 2d 00   @.p.....C.....-.
0010  53 57 41 69 00 00 00 00 46 d2 06 00 00 00 00 00   SWAi....F.......
0020  00 08 00 00 00 08 00 00 00 00 00 00 00 00 00 00   ................
0030  00 00 00 00 00 00 00 00 00 02 00 00 00 00 00 00   ................
0040  8f 98 fe d1 00 00 00 00 00 00 00 00 00 00 00 00   ................
0050  00 00 00 00 00 00 00 00 00 00 00 00 00 00 00 00   ................
0060  00 00 00 00 00 00 00 00 00 00 00 00 00 00 00 00   ................
0070  00 00 00 00 00 00 00 00 00 00 00 00 00 00 00 00   ................
0080  78 98 fe 09 00 00 00 00 00 00 00 00 00 00 00 00   x...............
0090  00 00 00 00 00 00 00 00 00 00 00 00 00 00 00 00   ................
00a0  00 00 00 00 00 00 00 00 00 00 00 00 00 00 00 00   ................
00b0  00 00 00 00 00 00 00 00 00 00 00 00 00 00 00 00   ................
00c0  79 98 fe 09 00 00 00 00 00 00 00 00 00 00 00 00   y...............
00d0  00 00 00 00 00 00 00 00 00 00 00 00 00 00 00 00   ................
00e0  00 00 00 00 00 00 00 00 00 00 00 00 00 00 00 00   ................
00f0  00 00 00 00 00 00 00 00 00 00 00 00 00 00 00 00   ................
0100  7a 98 fe 09 00 00 00 00 00 00 00 00 00 00 00 00   z...............
0110  00 00 00 00 00 00 00 00 00 00 00 00 00 00 00 00   ................
0120  00 00 00 00 00 00 00 00 00 00 00 00 00 00 00 00   ................
0130  00 00 00 00 00 00 00 00 00 00 00 00 00 00 00 00   ................
0140  7b 98 fe 09 00 00 00 00 00 00 00 00 00 00 00 00   {...............
0150  00 00 00 00 00 00 00 00 00 00 00 00 00 00 00 00   ................
0160  00 00 00 00 00 00 00 00 00 00 00 00 00 00 00 00   ................
0170  00 00 00 00 00 00 00 00 00 00 00 00 00 00 00 00   ................
0180  7c 98 fe 09 00 00 00 00 00 00 00 00 00 00 00 00   |...............
0190  00 00 00 00 00 00 00 00 00 00 00 00 00 00 00 00   ................
01a0  00 00 00 00 00 00 00 00 00 00 00 00 00 00 00 00   ................
01b0  00 00 00 00 00 00 00 00 00 00 00 00 00 00 00 00   ................
01c0  7d 98 fe 09 00 00 00 00 00 00 00 00 00 00 00 00   }...............
01d0  00 00 00 00 00 00 00 00 00 00 00 00 00 00 00 00   ................
01e0  00 00 00 00 00 00 00 00 00 00 00 00 00 00 00 00   ................
01f0  00 00 00 00 00 00 00 00 00 00 00 00 00 00 00 00   ................
0200  7e 98 fe 09 00 00 00 00 00 00 00 00 00 00 00 00   ~...............
0210  00 00 00 00 00 00 00 00 00 00 00 00 00 00 00 00   ................
0220  00 00 00 00 00 00 00 00 00 00 00 00 00 00 00 00   ................
0230  00 00 00 00 00 00 00 00 00 00 00 00 00 00 00 00   ................
0240  7f 98 fe 09 00 00 00 00 00 00 00 00 00 00 00 00   ................
0250  00 00 00 00 00 00 00 00 00 00 00 00 00 00 00 00   ................
0260  00 00 00 00 00 00 00 00 00 00 00 00 00 00 00 00   ................
0270  00 00 00 00 00 00 00 00 00 00 00 00 00 00 00 00   ................
0280  80 88 be 8f ad ad ad ad ad ad ad ad ad ad ad ad   ................
0290  ad ad ad ad ad ad ad ad ad ad ad ad ad ad ad ad   ................
02a0  ad ad ad ad ad ad ad ad ad ad ad ad ad ad ad ad   ................
02b0  ad ad ad ad ad ad ad ad ad ad ad ad ad ad ad ad   ................
02c0  81 88 be 8f ad ad ad ad ad ad ad ad ad ad ad ad   ................
02d0  ad ad ad ad ad ad ad ad ad ad ad ad ad ad ad ad   ................
02e0  ad ad ad ad ad ad ad ad ad ad ad ad ad ad ad ad   ................
02f0  ad ad ad ad ad ad ad ad ad ad ad ad ad ad ad ad   ................
0300  82 88 be 8f ad ad ad ad ad ad ad ad ad ad ad ad   ................
0310  ad ad ad ad ad ad ad ad ad ad ad ad ad ad ad ad   ................
0320  ad ad ad ad ad ad ad ad ad ad ad ad ad ad ad ad   ................
0330  ad ad ad ad ad ad ad ad ad ad ad ad ad ad ad ad   ................
0340  83 88 be 8f ad ad ad ad ad ad ad ad ad ad ad ad   ................
0350  ad ad ad ad ad ad ad ad ad ad ad ad ad ad ad ad   ................
0360  ad ad ad ad ad ad ad ad ad ad ad ad ad ad ad ad   ................
0370  ad ad ad ad ad ad ad ad ad ad ad ad ad ad ad ad   ................
0380  84 88 be 8f ad ad ad ad ad ad ad ad ad ad ad ad   ................
0390  ad ad ad ad ad ad ad ad ad ad ad ad ad ad ad ad   ................
03a0  ad ad ad ad ad ad ad ad ad ad ad ad ad ad ad ad   ................
03b0  ad ad ad ad ad ad ad ad ad ad ad ad ad ad ad ad   ................
03c0  85 88 be 8f ad ad ad ad ad ad ad ad ad ad ad ad   ................
03d0  ad ad ad ad ad ad ad ad ad ad ad ad ad ad ad ad   ................
03e0  ad ad ad ad ad ad ad ad ad ad ad ad ad ad ad ad   ................
03f0  ad ad ad ad ad ad ad ad ad ad ad ad ad ad ad ad   ................
0400  86 88 be 8f ad ad ad ad ad ad ad ad ad ad ad ad   ................
0410  ad ad ad ad ad ad ad ad ad ad ad ad ad ad ad ad   ................
0420  ad ad ad ad ad ad ad ad ad ad ad ad ad ad ad ad   ................
0430  ad ad ad ad ad ad ad ad ad ad ad ad ad ad ad ad   ................
0440  87 88 be 8f ad ad ad ad ad ad ad ad ad ad ad ad   ................
0450  ad ad ad ad ad ad ad ad ad ad ad ad ad ad ad ad   ................
0460  ad ad ad ad ad ad ad ad ad ad ad ad ad ad ad ad   ................
0470  ad ad ad ad ad ad ad ad ad ad ad ad ad ad ad ad   ................
0480  90 88 be 57 ad ad ad ad ad ad ad ad ad ad ad ad   ...W............
0490  ad ad ad ad ad ad ad ad ad ad ad ad ad ad ad ad   ................
04a0  ad ad ad ad ad ad ad ad ad ad ad ad ad ad ad ad   ................
04b0  ad ad ad ad ad ad ad ad ad ad ad ad ad ad ad ad   ................
04c0  91 88 be 57 ad ad ad ad ad ad ad ad ad ad ad ad   ...W............
04d0  ad ad ad ad ad ad ad ad ad ad ad ad ad ad ad ad   ................
04e0  ad ad ad ad ad ad ad ad ad ad ad ad ad ad ad ad   ................
04f0  ad ad ad ad ad ad ad ad ad ad ad ad ad ad ad ad   ................
0500  92 88 be 57 ad ad ad ad ad ad ad ad ad ad ad ad   ...W............
0510  ad ad ad ad ad ad ad ad ad ad ad ad ad ad ad ad   ................
0520  ad ad ad ad ad ad ad ad ad ad ad ad ad ad ad ad   ................
0530  ad ad ad ad ad ad ad ad ad ad ad ad ad ad ad ad   ................
0540  93 88 be 57 ad ad ad ad ad ad ad ad ad ad ad ad   ...W............
0550  ad ad ad ad ad ad ad ad ad ad ad ad ad ad ad ad   ................
0560  ad ad ad ad ad ad ad ad ad ad ad ad ad ad ad ad   ................
0570  ad ad ad ad ad ad ad ad ad ad ad ad ad ad ad ad   ................
0580  94 88 be 57 ad ad ad ad ad ad ad ad ad ad ad ad   ...W............
0590  ad ad ad ad ad ad ad ad ad ad ad ad ad ad ad ad   ................
05a0  ad ad ad ad ad ad ad ad ad ad ad ad ad ad ad ad   ................
05b0  ad ad ad ad ad ad ad ad ad ad ad ad ad ad ad ad   ................
05c0  95 88 be 57 ad ad ad ad ad ad ad ad ad ad ad ad   ...W............
05d0  ad ad ad ad ad ad ad ad ad ad ad ad ad ad ad ad   ................
05e0  ad ad ad ad ad ad ad ad ad ad ad ad ad ad ad ad   ................
05f0  ad ad ad ad ad ad ad ad ad ad ad ad ad ad ad ad   ................
0600  96 88 be 57 ad ad ad ad ad ad ad ad ad ad ad ad   ...W............
0610  ad ad ad ad ad ad ad ad ad ad ad ad ad ad ad ad   ................
0620  ad ad ad ad ad ad ad ad ad ad ad ad ad ad ad ad   ................
0630  ad ad ad ad ad ad ad ad ad ad ad ad ad ad ad ad   ................
0640  97 88 be 57 ad ad ad ad ad ad ad ad ad ad ad ad   ...W............
0650  ad ad ad ad ad ad ad ad ad ad ad ad ad ad ad ad   ................
0660  ad ad ad ad ad ad ad ad ad ad ad ad ad ad ad ad   ................
0670  ad ad ad ad ad ad ad ad ad ad ad ad ad ad ad ad   ................
0680  88 98 fe d1 00 00 00 00 00 00 00 00 00 00 00 00   ................
0690  00 00 00 00 00 00 00 00 00 00 00 00 00 00 00 00   ................
06a0  00 00 00 00 00 00 00 00 00 00 00 00 00 00 00 00   ................
06b0  00 00 00 00 00 00 00 00 00 00 00 00 00 00 00 00   ................
06c0  89 98 fe d1 00 00 00 00 00 00 00 00 00 00 00 00   ................
06d0  00 00 00 00 00 00 00 00 00 00 00 00 00 00 00 00   ................
06e0  00 00 00 00 00 00 00 00 00 00 00 00 00 00 00 00   ................
06f0  00 00 00 00 00 00 00 00 00 00 00 00 00 00 00 00   ................
0700  8a 98 fe d1 00 00 00 00 00 00 00 00 00 00 00 00   ................
0710  00 00 00 00 00 00 00 00 00 00 00 00 00 00 00 00   ................
0720  00 00 00 00 00 00 00 00 00 00 00 00 00 00 00 00   ................
0730  00 00 00 00 00 00 00 00 00 00 00 00 00 00 00 00   ................
0740  8b 98 fe d1 00 00 00 00 00 00 00 00 00 00 00 00   ................
0750  00 00 00 00 00 00 00 00 00 00 00 00 00 00 00 00   ................
0760  00 00 00 00 00 00 00 00 00 00 00 00 00 00 00 00   ................
0770  00 00 00 00 00 00 00 00 00 00 00 00 00 00 00 00   ................
0780  8c 98 fe d1 00 00 00 00 00 00 00 00 00 00 00 00   ................
0790  00 00 00 00 00 00 00 00 00 00 00 00 00 00 00 00   ................
07a0  00 00 00 00 00 00 00 00 00 00 00 00 00 00 00 00   ................
07b0  00 00 00 00 00 00 00 00 00 00 00 00 00 00 00 00   ................
07c0  8d 98 fe d1 00 00 00 00 00 00 00 00 00 00 00 00   ................
07d0  00 00 00 00 00 00 00 00 00 00 00 00 00 00 00 00   ................
07e0  00 00 00 00 00 00 00 00 00 00 00 00 00 00 00 00   ................
07f0  00 00 00 00 00 00 00 00 00 00 00 00 00 00 00 00   ................
0800  8e 98 fe d1 00 00 00 00 00 00 00 00 00 00 00 00   ................
0810  00 00 00 00 00 00 00 00 00 00 00 00 00 00 00 00   ................
0820  00 00 00 00 00 00 00 00 00 00 00 00 00 00 00 00   ................
0830  00 00 00 00 00 00 00 00 00 00 00 00 00 00 00 00   ................

No.     Time           Source                Destination           Protocol Length Info
    287 5.439764       2.20.3                host                  USB      576    URB_BULK in

Frame 287: 576 bytes on wire (4608 bits), 576 bytes captured (4608 bits) on interface usbmon2, id 0
USB URB
    [Source: 2.20.3]
    [Destination: host]
    URB id: 0xffff9beec070f840
    URB type: URB_COMPLETE ('C')
    URB transfer type: URB_BULK (0x03)
    Endpoint: 0x83, Direction: IN
    Device: 20
    URB bus id: 2
    Device setup request: not relevant ('-')
    Data: present ('\0')
    URB sec: 1765889875
    URB usec: 452952
    URB status: Success (0)
    URB length [bytes]: 512
    Data length [bytes]: 512
    [Request in: 276]
    [Time from request: 0.000685000 seconds]
    [bInterfaceClass: Unknown (0xffff)]
    Unused Setup Header
    Interval: 0
    Start frame: 0
    Copy of Transfer Flags: 0x00000200, Dir IN
    Number of ISO descriptors: 0
Leftover Capture Data […]: 9818fe990000000000000000000000000000000000000000000000000000000000000000000000000000000000000000000000000000000000000000000000009918fe9900000000000000000000000000000000000000000000000000000000000000000000000000

0000  40 f8 70 c0 ee 9b ff ff 43 03 83 14 02 00 2d 00   @.p.....C.....-.
0010  53 57 41 69 00 00 00 00 58 e9 06 00 00 00 00 00   SWAi....X.......
0020  00 02 00 00 00 02 00 00 00 00 00 00 00 00 00 00   ................
0030  00 00 00 00 00 00 00 00 00 02 00 00 00 00 00 00   ................
0040  98 18 fe 99 00 00 00 00 00 00 00 00 00 00 00 00   ................
0050  00 00 00 00 00 00 00 00 00 00 00 00 00 00 00 00   ................
0060  00 00 00 00 00 00 00 00 00 00 00 00 00 00 00 00   ................
0070  00 00 00 00 00 00 00 00 00 00 00 00 00 00 00 00   ................
0080  99 18 fe 99 00 00 00 00 00 00 00 00 00 00 00 00   ................
0090  00 00 00 00 00 00 00 00 00 00 00 00 00 00 00 00   ................
00a0  00 00 00 00 00 00 00 00 00 00 00 00 00 00 00 00   ................
00b0  00 00 00 00 00 00 00 00 00 00 00 00 00 00 00 00   ................
00c0  9a 18 fe 99 00 00 00 00 00 00 00 00 00 00 00 00   ................
00d0  00 00 00 00 00 00 00 00 00 00 00 00 00 00 00 00   ................
00e0  00 00 00 00 00 00 00 00 00 00 00 00 00 00 00 00   ................
00f0  00 00 00 00 00 00 00 00 00 00 00 00 00 00 00 00   ................
0100  9b 18 fe 99 00 00 00 00 00 00 00 00 00 00 00 00   ................
0110  00 00 00 00 00 00 00 00 00 00 00 00 00 00 00 00   ................
0120  00 00 00 00 00 00 00 00 00 00 00 00 00 00 00 00   ................
0130  00 00 00 00 00 00 00 00 00 00 00 00 00 00 00 00   ................
0140  9c 18 fe 99 00 00 00 00 00 00 00 00 00 00 00 00   ................
0150  00 00 00 00 00 00 00 00 00 00 00 00 00 00 00 00   ................
0160  00 00 00 00 00 00 00 00 00 00 00 00 00 00 00 00   ................
0170  00 00 00 00 00 00 00 00 00 00 00 00 00 00 00 00   ................
0180  9d 18 fe 99 00 00 00 00 00 00 00 00 00 00 00 00   ................
0190  00 00 00 00 00 00 00 00 00 00 00 00 00 00 00 00   ................
01a0  00 00 00 00 00 00 00 00 00 00 00 00 00 00 00 00   ................
01b0  00 00 00 00 00 00 00 00 00 00 00 00 00 00 00 00   ................
01c0  9e 18 fe 99 00 00 00 00 00 00 00 00 00 00 00 00   ................
01d0  00 00 00 00 00 00 00 00 00 00 00 00 00 00 00 00   ................
01e0  00 00 00 00 00 00 00 00 00 00 00 00 00 00 00 00   ................
01f0  00 00 00 00 00 00 00 00 00 00 00 00 00 00 00 00   ................
0200  9f 18 fe 99 00 00 00 00 00 00 00 00 00 00 00 00   ................
0210  00 00 00 00 00 00 00 00 00 00 00 00 00 00 00 00   ................
0220  00 00 00 00 00 00 00 00 00 00 00 00 00 00 00 00   ................
0230  00 00 00 00 00 00 00 00 00 00 00 00 00 00 00 00   ................

No.     Time           Source                Destination           Protocol Length Info
   2611 5.471367       2.20.3                host                  USB      576    URB_BULK in

Frame 2611: 576 bytes on wire (4608 bits), 576 bytes captured (4608 bits) on interface usbmon2, id 0
USB URB
    [Source: 2.20.3]
    [Destination: host]
    URB id: 0xffff9bee9a61c480
    URB type: URB_COMPLETE ('C')
    URB transfer type: URB_BULK (0x03)
    Endpoint: 0x83, Direction: IN
    Device: 20
    URB bus id: 2
    Device setup request: not relevant ('-')
    Data: present ('\0')
    URB sec: 1765889875
    URB usec: 484555
    URB status: Success (0)
    URB length [bytes]: 512
    Data length [bytes]: 512
    [Request in: 2593]
    [Time from request: 0.000882000 seconds]
    [bInterfaceClass: Unknown (0xffff)]
    Unused Setup Header
    Interval: 0
    Start frame: 0
    Copy of Transfer Flags: 0x00000200, Dir IN
    Number of ISO descriptors: 0
Leftover Capture Data […]: a008bf1fadadadadadadadadadadadadadadadadadadadadadadadadadadadadadadadadadadadadadadadadadadadadadadadadadadadadadadadadadadadada108bf1fadadadadadadadadadadadadadadadadadadadadadadadadadadadadadadadadadadadadad

0000  80 c4 61 9a ee 9b ff ff 43 03 83 14 02 00 2d 00   ..a.....C.....-.
0010  53 57 41 69 00 00 00 00 cb 64 07 00 00 00 00 00   SWAi.....d......
0020  00 02 00 00 00 02 00 00 00 00 00 00 00 00 00 00   ................
0030  00 00 00 00 00 00 00 00 00 02 00 00 00 00 00 00   ................
0040  a0 08 bf 1f ad ad ad ad ad ad ad ad ad ad ad ad   ................
0050  ad ad ad ad ad ad ad ad ad ad ad ad ad ad ad ad   ................
0060  ad ad ad ad ad ad ad ad ad ad ad ad ad ad ad ad   ................
0070  ad ad ad ad ad ad ad ad ad ad ad ad ad ad ad ad   ................
0080  a1 08 bf 1f ad ad ad ad ad ad ad ad ad ad ad ad   ................
0090  ad ad ad ad ad ad ad ad ad ad ad ad ad ad ad ad   ................
00a0  ad ad ad ad ad ad ad ad ad ad ad ad ad ad ad ad   ................
00b0  ad ad ad ad ad ad ad ad ad ad ad ad ad ad ad ad   ................
00c0  a2 08 bf 1f ad ad ad ad ad ad ad ad ad ad ad ad   ................
00d0  ad ad ad ad ad ad ad ad ad ad ad ad ad ad ad ad   ................
00e0  ad ad ad ad ad ad ad ad ad ad ad ad ad ad ad ad   ................
00f0  ad ad ad ad ad ad ad ad ad ad ad ad ad ad ad ad   ................
0100  a3 08 bf 1f ad ad ad ad ad ad ad ad ad ad ad ad   ................
0110  ad ad ad ad ad ad ad ad ad ad ad ad ad ad ad ad   ................
0120  ad ad ad ad ad ad ad ad ad ad ad ad ad ad ad ad   ................
0130  ad ad ad ad ad ad ad ad ad ad ad ad ad ad ad ad   ................
0140  a4 08 bf 1f ad ad ad ad ad ad ad ad ad ad ad ad   ................
0150  ad ad ad ad ad ad ad ad ad ad ad ad ad ad ad ad   ................
0160  ad ad ad ad ad ad ad ad ad ad ad ad ad ad ad ad   ................
0170  ad ad ad ad ad ad ad ad ad ad ad ad ad ad ad ad   ................
0180  a5 08 bf 1f ad ad ad ad ad ad ad ad ad ad ad ad   ................
0190  ad ad ad ad ad ad ad ad ad ad ad ad ad ad ad ad   ................
01a0  ad ad ad ad ad ad ad ad ad ad ad ad ad ad ad ad   ................
01b0  ad ad ad ad ad ad ad ad ad ad ad ad ad ad ad ad   ................
01c0  a6 08 bf 1f ad ad ad ad ad ad ad ad ad ad ad ad   ................
01d0  ad ad ad ad ad ad ad ad ad ad ad ad ad ad ad ad   ................
01e0  ad ad ad ad ad ad ad ad ad ad ad ad ad ad ad ad   ................
01f0  ad ad ad ad ad ad ad ad ad ad ad ad ad ad ad ad   ................
0200  a7 08 bf 1f ad ad ad ad ad ad ad ad ad ad ad ad   ................
0210  ad ad ad ad ad ad ad ad ad ad ad ad ad ad ad ad   ................
0220  ad ad ad ad ad ad ad ad ad ad ad ad ad ad ad ad   ................
0230  ad ad ad ad ad ad ad ad ad ad ad ad ad ad ad ad   ................

No.     Time           Source                Destination           Protocol Length Info
   3671 5.488288       2.20.3                host                  USB      576    URB_BULK in

Frame 3671: 576 bytes on wire (4608 bits), 576 bytes captured (4608 bits) on interface usbmon2, id 0
USB URB
    [Source: 2.20.3]
    [Destination: host]
    URB id: 0xffff9bee9a61c480
    URB type: URB_COMPLETE ('C')
    URB transfer type: URB_BULK (0x03)
    Endpoint: 0x83, Direction: IN
    Device: 20
    URB bus id: 2
    Device setup request: not relevant ('-')
    Data: present ('\0')
    URB sec: 1765889875
    URB usec: 501476
    URB status: Success (0)
    URB length [bytes]: 512
    Data length [bytes]: 512
    [Request in: 3652]
    [Time from request: 0.000843000 seconds]
    [bInterfaceClass: Unknown (0xffff)]
    Unused Setup Header
    Interval: 0
    Start frame: 0
    Copy of Transfer Flags: 0x00000200, Dir IN
    Number of ISO descriptors: 0
Leftover Capture Data […]: a818fe61000000000000000000000000000000000000000000000000000000000000000000000000000000000000000000000000000000000000000000000000a918fe6100000000000000000000000000000000000000000000000000000000000000000000000000

0000  80 c4 61 9a ee 9b ff ff 43 03 83 14 02 00 2d 00   ..a.....C.....-.
0010  53 57 41 69 00 00 00 00 e4 a6 07 00 00 00 00 00   SWAi............
0020  00 02 00 00 00 02 00 00 00 00 00 00 00 00 00 00   ................
0030  00 00 00 00 00 00 00 00 00 02 00 00 00 00 00 00   ................
0040  a8 18 fe 61 00 00 00 00 00 00 00 00 00 00 00 00   ...a............
0050  00 00 00 00 00 00 00 00 00 00 00 00 00 00 00 00   ................
0060  00 00 00 00 00 00 00 00 00 00 00 00 00 00 00 00   ................
0070  00 00 00 00 00 00 00 00 00 00 00 00 00 00 00 00   ................
0080  a9 18 fe 61 00 00 00 00 00 00 00 00 00 00 00 00   ...a............
0090  00 00 00 00 00 00 00 00 00 00 00 00 00 00 00 00   ................
00a0  00 00 00 00 00 00 00 00 00 00 00 00 00 00 00 00   ................
00b0  00 00 00 00 00 00 00 00 00 00 00 00 00 00 00 00   ................
00c0  aa 18 fe 61 00 00 00 00 00 00 00 00 00 00 00 00   ...a............
00d0  00 00 00 00 00 00 00 00 00 00 00 00 00 00 00 00   ................
00e0  00 00 00 00 00 00 00 00 00 00 00 00 00 00 00 00   ................
00f0  00 00 00 00 00 00 00 00 00 00 00 00 00 00 00 00   ................
0100  ab 18 fe 61 00 00 00 00 00 00 00 00 00 00 00 00   ...a............
0110  00 00 00 00 00 00 00 00 00 00 00 00 00 00 00 00   ................
0120  00 00 00 00 00 00 00 00 00 00 00 00 00 00 00 00   ................
0130  00 00 00 00 00 00 00 00 00 00 00 00 00 00 00 00   ................
0140  ac 18 fe 61 00 00 00 00 00 00 00 00 00 00 00 00   ...a............
0150  00 00 00 00 00 00 00 00 00 00 00 00 00 00 00 00   ................
0160  00 00 00 00 00 00 00 00 00 00 00 00 00 00 00 00   ................
0170  00 00 00 00 00 00 00 00 00 00 00 00 00 00 00 00   ................
0180  ad 18 fe 61 00 00 00 00 00 00 00 00 00 00 00 00   ...a............
0190  00 00 00 00 00 00 00 00 00 00 00 00 00 00 00 00   ................
01a0  00 00 00 00 00 00 00 00 00 00 00 00 00 00 00 00   ................
01b0  00 00 00 00 00 00 00 00 00 00 00 00 00 00 00 00   ................
01c0  ae 18 fe 61 00 00 00 00 00 00 00 00 00 00 00 00   ...a............
01d0  00 00 00 00 00 00 00 00 00 00 00 00 00 00 00 00   ................
01e0  00 00 00 00 00 00 00 00 00 00 00 00 00 00 00 00   ................
01f0  00 00 00 00 00 00 00 00 00 00 00 00 00 00 00 00   ................
0200  af 18 fe 61 00 00 00 00 00 00 00 00 00 00 00 00   ...a............
0210  00 00 00 00 00 00 00 00 00 00 00 00 00 00 00 00   ................
0220  00 00 00 00 00 00 00 00 00 00 00 00 00 00 00 00   ................
0230  00 00 00 00 00 00 00 00 00 00 00 00 00 00 00 00   ................

No.     Time           Source                Destination           Protocol Length Info
   6257 5.522526       2.20.3                host                  USB      576    URB_BULK in

Frame 6257: 576 bytes on wire (4608 bits), 576 bytes captured (4608 bits) on interface usbmon2, id 0
USB URB
    [Source: 2.20.3]
    [Destination: host]
    URB id: 0xffff9bee9a61ccc0
    URB type: URB_COMPLETE ('C')
    URB transfer type: URB_BULK (0x03)
    Endpoint: 0x83, Direction: IN
    Device: 20
    URB bus id: 2
    Device setup request: not relevant ('-')
    Data: present ('\0')
    URB sec: 1765889875
    URB usec: 535714
    URB status: Success (0)
    URB length [bytes]: 512
    Data length [bytes]: 512
    [Request in: 6238]
    [Time from request: 0.000864000 seconds]
    [bInterfaceClass: Unknown (0xffff)]
    Unused Setup Header
    Interval: 0
    Start frame: 0
    Copy of Transfer Flags: 0x00000200, Dir IN
    Number of ISO descriptors: 0
Leftover Capture Data […]: b008c0e7adadadadadadadadadadadadadadadadadadadadadadadadadadadadadadadadadadadadadadadadadadadadadadadadadadadadadadadadadadadadb108c0e7adadadadadadadadadadadadadadadadadadadadadadadadadadadadadadadadadadadadad

0000  c0 cc 61 9a ee 9b ff ff 43 03 83 14 02 00 2d 00   ..a.....C.....-.
0010  53 57 41 69 00 00 00 00 a2 2c 08 00 00 00 00 00   SWAi.....,......
0020  00 02 00 00 00 02 00 00 00 00 00 00 00 00 00 00   ................
0030  00 00 00 00 00 00 00 00 00 02 00 00 00 00 00 00   ................
0040  b0 08 c0 e7 ad ad ad ad ad ad ad ad ad ad ad ad   ................
0050  ad ad ad ad ad ad ad ad ad ad ad ad ad ad ad ad   ................
0060  ad ad ad ad ad ad ad ad ad ad ad ad ad ad ad ad   ................
0070  ad ad ad ad ad ad ad ad ad ad ad ad ad ad ad ad   ................
0080  b1 08 c0 e7 ad ad ad ad ad ad ad ad ad ad ad ad   ................
0090  ad ad ad ad ad ad ad ad ad ad ad ad ad ad ad ad   ................
00a0  ad ad ad ad ad ad ad ad ad ad ad ad ad ad ad ad   ................
00b0  ad ad ad ad ad ad ad ad ad ad ad ad ad ad ad ad   ................
00c0  b2 08 c0 e7 ad ad ad ad ad ad ad ad ad ad ad ad   ................
00d0  ad ad ad ad ad ad ad ad ad ad ad ad ad ad ad ad   ................
00e0  ad ad ad ad ad ad ad ad ad ad ad ad ad ad ad ad   ................
00f0  ad ad ad ad ad ad ad ad ad ad ad ad ad ad ad ad   ................
0100  b3 08 c0 e7 ad ad ad ad ad ad ad ad ad ad ad ad   ................
0110  ad ad ad ad ad ad ad ad ad ad ad ad ad ad ad ad   ................
0120  ad ad ad ad ad ad ad ad ad ad ad ad ad ad ad ad   ................
0130  ad ad ad ad ad ad ad ad ad ad ad ad ad ad ad ad   ................
0140  b4 08 c0 e7 ad ad ad ad ad ad ad ad ad ad ad ad   ................
0150  ad ad ad ad ad ad ad ad ad ad ad ad ad ad ad ad   ................
0160  ad ad ad ad ad ad ad ad ad ad ad ad ad ad ad ad   ................
0170  ad ad ad ad ad ad ad ad ad ad ad ad ad ad ad ad   ................
0180  b5 08 c0 e7 ad ad ad ad ad ad ad ad ad ad ad ad   ................
0190  ad ad ad ad ad ad ad ad ad ad ad ad ad ad ad ad   ................
01a0  ad ad ad ad ad ad ad ad ad ad ad ad ad ad ad ad   ................
01b0  ad ad ad ad ad ad ad ad ad ad ad ad ad ad ad ad   ................
01c0  b6 08 c0 e7 ad ad ad ad ad ad ad ad ad ad ad ad   ................
01d0  ad ad ad ad ad ad ad ad ad ad ad ad ad ad ad ad   ................
01e0  ad ad ad ad ad ad ad ad ad ad ad ad ad ad ad ad   ................
01f0  ad ad ad ad ad ad ad ad ad ad ad ad ad ad ad ad   ................
0200  b7 08 c0 e7 ad ad ad ad ad ad ad ad ad ad ad ad   ................
0210  ad ad ad ad ad ad ad ad ad ad ad ad ad ad ad ad   ................
0220  ad ad ad ad ad ad ad ad ad ad ad ad ad ad ad ad   ................
0230  ad ad ad ad ad ad ad ad ad ad ad ad ad ad ad ad   ................

No.     Time           Source                Destination           Protocol Length Info
   7405 5.539529       2.20.3                host                  USB      576    URB_BULK in

Frame 7405: 576 bytes on wire (4608 bits), 576 bytes captured (4608 bits) on interface usbmon2, id 0
USB URB
    [Source: 2.20.3]
    [Destination: host]
    URB id: 0xffff9bef857f1d80
    URB type: URB_COMPLETE ('C')
    URB transfer type: URB_BULK (0x03)
    Endpoint: 0x83, Direction: IN
    Device: 20
    URB bus id: 2
    Device setup request: not relevant ('-')
    Data: present ('\0')
    URB sec: 1765889875
    URB usec: 552717
    URB status: Success (0)
    URB length [bytes]: 512
    Data length [bytes]: 512
    [Request in: 7387]
    [Time from request: 0.000847000 seconds]
    [bInterfaceClass: Unknown (0xffff)]
    Unused Setup Header
    Interval: 0
    Start frame: 0
    Copy of Transfer Flags: 0x00000200, Dir IN
    Number of ISO descriptors: 0
Leftover Capture Data […]: b818fe29000000000000000000000000000000000000000000000000000000000000000000000000000000000000000000000000000000000000000000000000b918fe2900000000000000000000000000000000000000000000000000000000000000000000000000

0000  80 1d 7f 85 ef 9b ff ff 43 03 83 14 02 00 2d 00   ........C.....-.
0010  53 57 41 69 00 00 00 00 0d 6f 08 00 00 00 00 00   SWAi.....o......
0020  00 02 00 00 00 02 00 00 00 00 00 00 00 00 00 00   ................
0030  00 00 00 00 00 00 00 00 00 02 00 00 00 00 00 00   ................
0040  b8 18 fe 29 00 00 00 00 00 00 00 00 00 00 00 00   ...)............
0050  00 00 00 00 00 00 00 00 00 00 00 00 00 00 00 00   ................
0060  00 00 00 00 00 00 00 00 00 00 00 00 00 00 00 00   ................
0070  00 00 00 00 00 00 00 00 00 00 00 00 00 00 00 00   ................
0080  b9 18 fe 29 00 00 00 00 00 00 00 00 00 00 00 00   ...)............
0090  00 00 00 00 00 00 00 00 00 00 00 00 00 00 00 00   ................
00a0  00 00 00 00 00 00 00 00 00 00 00 00 00 00 00 00   ................
00b0  00 00 00 00 00 00 00 00 00 00 00 00 00 00 00 00   ................
00c0  ba 18 fe 29 00 00 00 00 00 00 00 00 00 00 00 00   ...)............
00d0  00 00 00 00 00 00 00 00 00 00 00 00 00 00 00 00   ................
00e0  00 00 00 00 00 00 00 00 00 00 00 00 00 00 00 00   ................
00f0  00 00 00 00 00 00 00 00 00 00 00 00 00 00 00 00   ................
0100  bb 18 fe 29 00 00 00 00 00 00 00 00 00 00 00 00   ...)............
0110  00 00 00 00 00 00 00 00 00 00 00 00 00 00 00 00   ................
0120  00 00 00 00 00 00 00 00 00 00 00 00 00 00 00 00   ................
0130  00 00 00 00 00 00 00 00 00 00 00 00 00 00 00 00   ................
0140  bc 18 fe 29 00 00 00 00 00 00 00 00 00 00 00 00   ...)............
0150  00 00 00 00 00 00 00 00 00 00 00 00 00 00 00 00   ................
0160  00 00 00 00 00 00 00 00 00 00 00 00 00 00 00 00   ................
0170  00 00 00 00 00 00 00 00 00 00 00 00 00 00 00 00   ................
0180  bd 18 fe 29 00 00 00 00 00 00 00 00 00 00 00 00   ...)............
0190  00 00 00 00 00 00 00 00 00 00 00 00 00 00 00 00   ................
01a0  00 00 00 00 00 00 00 00 00 00 00 00 00 00 00 00   ................
01b0  00 00 00 00 00 00 00 00 00 00 00 00 00 00 00 00   ................
01c0  be 18 fe 29 00 00 00 00 00 00 00 00 00 00 00 00   ...)............
01d0  00 00 00 00 00 00 00 00 00 00 00 00 00 00 00 00   ................
01e0  00 00 00 00 00 00 00 00 00 00 00 00 00 00 00 00   ................
01f0  00 00 00 00 00 00 00 00 00 00 00 00 00 00 00 00   ................
0200  bf 18 fe 29 00 00 00 00 00 00 00 00 00 00 00 00   ...)............
0210  00 00 00 00 00 00 00 00 00 00 00 00 00 00 00 00   ................
0220  00 00 00 00 00 00 00 00 00 00 00 00 00 00 00 00   ................
0230  00 00 00 00 00 00 00 00 00 00 00 00 00 00 00 00   ................

No.     Time           Source                Destination           Protocol Length Info
   9927 5.573704       2.20.3                host                  USB      576    URB_BULK in

Frame 9927: 576 bytes on wire (4608 bits), 576 bytes captured (4608 bits) on interface usbmon2, id 0
USB URB
    [Source: 2.20.3]
    [Destination: host]
    URB id: 0xffff9bee8493b300
    URB type: URB_COMPLETE ('C')
    URB transfer type: URB_BULK (0x03)
    Endpoint: 0x83, Direction: IN
    Device: 20
    URB bus id: 2
    Device setup request: not relevant ('-')
    Data: present ('\0')
    URB sec: 1765889875
    URB usec: 586892
    URB status: Success (0)
    URB length [bytes]: 512
    Data length [bytes]: 512
    [Request in: 9908]
    [Time from request: 0.000864000 seconds]
    [bInterfaceClass: Unknown (0xffff)]
    Unused Setup Header
    Interval: 0
    Start frame: 0
    Copy of Transfer Flags: 0x00000200, Dir IN
    Number of ISO descriptors: 0
Leftover Capture Data […]: c008c1afadadadadadadadadadadadadadadadadadadadadadadadadadadadadadadadadadadadadadadadadadadadadadadadadadadadadadadadadadadadadc108c1afadadadadadadadadadadadadadadadadadadadadadadadadadadadadadadadadadadadadad

0000  00 b3 93 84 ee 9b ff ff 43 03 83 14 02 00 2d 00   ........C.....-.
0010  53 57 41 69 00 00 00 00 8c f4 08 00 00 00 00 00   SWAi............
0020  00 02 00 00 00 02 00 00 00 00 00 00 00 00 00 00   ................
0030  00 00 00 00 00 00 00 00 00 02 00 00 00 00 00 00   ................
0040  c0 08 c1 af ad ad ad ad ad ad ad ad ad ad ad ad   ................
0050  ad ad ad ad ad ad ad ad ad ad ad ad ad ad ad ad   ................
0060  ad ad ad ad ad ad ad ad ad ad ad ad ad ad ad ad   ................
0070  ad ad ad ad ad ad ad ad ad ad ad ad ad ad ad ad   ................
0080  c1 08 c1 af ad ad ad ad ad ad ad ad ad ad ad ad   ................
0090  ad ad ad ad ad ad ad ad ad ad ad ad ad ad ad ad   ................
00a0  ad ad ad ad ad ad ad ad ad ad ad ad ad ad ad ad   ................
00b0  ad ad ad ad ad ad ad ad ad ad ad ad ad ad ad ad   ................
00c0  c2 08 c1 af ad ad ad ad ad ad ad ad ad ad ad ad   ................
00d0  ad ad ad ad ad ad ad ad ad ad ad ad ad ad ad ad   ................
00e0  ad ad ad ad ad ad ad ad ad ad ad ad ad ad ad ad   ................
00f0  ad ad ad ad ad ad ad ad ad ad ad ad ad ad ad ad   ................
0100  c3 08 c1 af ad ad ad ad ad ad ad ad ad ad ad ad   ................
0110  ad ad ad ad ad ad ad ad ad ad ad ad ad ad ad ad   ................
0120  ad ad ad ad ad ad ad ad ad ad ad ad ad ad ad ad   ................
0130  ad ad ad ad ad ad ad ad ad ad ad ad ad ad ad ad   ................
0140  c4 08 c1 af ad ad ad ad ad ad ad ad ad ad ad ad   ................
0150  ad ad ad ad ad ad ad ad ad ad ad ad ad ad ad ad   ................
0160  ad ad ad ad ad ad ad ad ad ad ad ad ad ad ad ad   ................
0170  ad ad ad ad ad ad ad ad ad ad ad ad ad ad ad ad   ................
0180  c5 08 c1 af ad ad ad ad ad ad ad ad ad ad ad ad   ................
0190  ad ad ad ad ad ad ad ad ad ad ad ad ad ad ad ad   ................
01a0  ad ad ad ad ad ad ad ad ad ad ad ad ad ad ad ad   ................
01b0  ad ad ad ad ad ad ad ad ad ad ad ad ad ad ad ad   ................
01c0  c6 08 c1 af ad ad ad ad ad ad ad ad ad ad ad ad   ................
01d0  ad ad ad ad ad ad ad ad ad ad ad ad ad ad ad ad   ................
01e0  ad ad ad ad ad ad ad ad ad ad ad ad ad ad ad ad   ................
01f0  ad ad ad ad ad ad ad ad ad ad ad ad ad ad ad ad   ................
0200  c7 08 c1 af ad ad ad ad ad ad ad ad ad ad ad ad   ................
0210  ad ad ad ad ad ad ad ad ad ad ad ad ad ad ad ad   ................
0220  ad ad ad ad ad ad ad ad ad ad ad ad ad ad ad ad   ................
0230  ad ad ad ad ad ad ad ad ad ad ad ad ad ad ad ad   ................

No.     Time           Source                Destination           Protocol Length Info
  11021 5.590710       2.20.3                host                  USB      576    URB_BULK in

Frame 11021: 576 bytes on wire (4608 bits), 576 bytes captured (4608 bits) on interface usbmon2, id 0
USB URB
    [Source: 2.20.3]
    [Destination: host]
    URB id: 0xffff9befdb8fa840
    URB type: URB_COMPLETE ('C')
    URB transfer type: URB_BULK (0x03)
    Endpoint: 0x83, Direction: IN
    Device: 20
    URB bus id: 2
    Device setup request: not relevant ('-')
    Data: present ('\0')
    URB sec: 1765889875
    URB usec: 603898
    URB status: Success (0)
    URB length [bytes]: 512
    Data length [bytes]: 512
    [Request in: 11003]
    [Time from request: 0.000907000 seconds]
    [bInterfaceClass: Unknown (0xffff)]
    Unused Setup Header
    Interval: 0
    Start frame: 0
    Copy of Transfer Flags: 0x00000200, Dir IN
    Number of ISO descriptors: 0
Leftover Capture Data […]: c818fef1000000000000000000000000000000000000000000000000000000000000000000000000000000000000000000000000000000000000000000000000c918fef100000000000000000000000000000000000000000000000000000000000000000000000000

0000  40 a8 8f db ef 9b ff ff 43 03 83 14 02 00 2d 00   @.......C.....-.
0010  53 57 41 69 00 00 00 00 fa 36 09 00 00 00 00 00   SWAi.....6......
0020  00 02 00 00 00 02 00 00 00 00 00 00 00 00 00 00   ................
0030  00 00 00 00 00 00 00 00 00 02 00 00 00 00 00 00   ................
0040  c8 18 fe f1 00 00 00 00 00 00 00 00 00 00 00 00   ................
0050  00 00 00 00 00 00 00 00 00 00 00 00 00 00 00 00   ................
0060  00 00 00 00 00 00 00 00 00 00 00 00 00 00 00 00   ................
0070  00 00 00 00 00 00 00 00 00 00 00 00 00 00 00 00   ................
0080  c9 18 fe f1 00 00 00 00 00 00 00 00 00 00 00 00   ................
0090  00 00 00 00 00 00 00 00 00 00 00 00 00 00 00 00   ................
00a0  00 00 00 00 00 00 00 00 00 00 00 00 00 00 00 00   ................
00b0  00 00 00 00 00 00 00 00 00 00 00 00 00 00 00 00   ................
00c0  ca 18 fe f1 00 00 00 00 00 00 00 00 00 00 00 00   ................
00d0  00 00 00 00 00 00 00 00 00 00 00 00 00 00 00 00   ................
00e0  00 00 00 00 00 00 00 00 00 00 00 00 00 00 00 00   ................
00f0  00 00 00 00 00 00 00 00 00 00 00 00 00 00 00 00   ................
0100  cb 18 fe f1 00 00 00 00 00 00 00 00 00 00 00 00   ................
0110  00 00 00 00 00 00 00 00 00 00 00 00 00 00 00 00   ................
0120  00 00 00 00 00 00 00 00 00 00 00 00 00 00 00 00   ................
0130  00 00 00 00 00 00 00 00 00 00 00 00 00 00 00 00   ................
0140  cc 18 fe f1 00 00 00 00 00 00 00 00 00 00 00 00   ................
0150  00 00 00 00 00 00 00 00 00 00 00 00 00 00 00 00   ................
0160  00 00 00 00 00 00 00 00 00 00 00 00 00 00 00 00   ................
0170  00 00 00 00 00 00 00 00 00 00 00 00 00 00 00 00   ................
0180  cd 18 fe f1 00 00 00 00 00 00 00 00 00 00 00 00   ................
0190  00 00 00 00 00 00 00 00 00 00 00 00 00 00 00 00   ................
01a0  00 00 00 00 00 00 00 00 00 00 00 00 00 00 00 00   ................
01b0  00 00 00 00 00 00 00 00 00 00 00 00 00 00 00 00   ................
01c0  ce 18 fe f1 00 00 00 00 00 00 00 00 00 00 00 00   ................
01d0  00 00 00 00 00 00 00 00 00 00 00 00 00 00 00 00   ................
01e0  00 00 00 00 00 00 00 00 00 00 00 00 00 00 00 00   ................
01f0  00 00 00 00 00 00 00 00 00 00 00 00 00 00 00 00   ................
0200  cf 18 fe f1 00 00 00 00 00 00 00 00 00 00 00 00   ................
0210  00 00 00 00 00 00 00 00 00 00 00 00 00 00 00 00   ................
0220  00 00 00 00 00 00 00 00 00 00 00 00 00 00 00 00   ................
0230  00 00 00 00 00 00 00 00 00 00 00 00 00 00 00 00   ................

No.     Time           Source                Destination           Protocol Length Info
  13533 5.624982       2.20.3                host                  USB      576    URB_BULK in

Frame 13533: 576 bytes on wire (4608 bits), 576 bytes captured (4608 bits) on interface usbmon2, id 0
USB URB
    [Source: 2.20.3]
    [Destination: host]
    URB id: 0xffff9bee838c8900
    URB type: URB_COMPLETE ('C')
    URB transfer type: URB_BULK (0x03)
    Endpoint: 0x83, Direction: IN
    Device: 20
    URB bus id: 2
    Device setup request: not relevant ('-')
    Data: present ('\0')
    URB sec: 1765889875
    URB usec: 638170
    URB status: Success (0)
    URB length [bytes]: 512
    Data length [bytes]: 512
    [Request in: 13515]
    [Time from request: 0.000860000 seconds]
    [bInterfaceClass: Unknown (0xffff)]
    Unused Setup Header
    Interval: 0
    Start frame: 0
    Copy of Transfer Flags: 0x00000200, Dir IN
    Number of ISO descriptors: 0
Leftover Capture Data […]: d008c277adadadadadadadadadadadadadadadadadadadadadadadadadadadadadadadadadadadadadadadadadadadadadadadadadadadadadadadadadadadadd108c277adadadadadadadadadadadadadadadadadadadadadadadadadadadadadadadadadadadadad

0000  00 89 8c 83 ee 9b ff ff 43 03 83 14 02 00 2d 00   ........C.....-.
0010  53 57 41 69 00 00 00 00 da bc 09 00 00 00 00 00   SWAi............
0020  00 02 00 00 00 02 00 00 00 00 00 00 00 00 00 00   ................
0030  00 00 00 00 00 00 00 00 00 02 00 00 00 00 00 00   ................
0040  d0 08 c2 77 ad ad ad ad ad ad ad ad ad ad ad ad   ...w............
0050  ad ad ad ad ad ad ad ad ad ad ad ad ad ad ad ad   ................
0060  ad ad ad ad ad ad ad ad ad ad ad ad ad ad ad ad   ................
0070  ad ad ad ad ad ad ad ad ad ad ad ad ad ad ad ad   ................
0080  d1 08 c2 77 ad ad ad ad ad ad ad ad ad ad ad ad   ...w............
0090  ad ad ad ad ad ad ad ad ad ad ad ad ad ad ad ad   ................
00a0  ad ad ad ad ad ad ad ad ad ad ad ad ad ad ad ad   ................
00b0  ad ad ad ad ad ad ad ad ad ad ad ad ad ad ad ad   ................
00c0  d2 08 c2 77 ad ad ad ad ad ad ad ad ad ad ad ad   ...w............
00d0  ad ad ad ad ad ad ad ad ad ad ad ad ad ad ad ad   ................
00e0  ad ad ad ad ad ad ad ad ad ad ad ad ad ad ad ad   ................
00f0  ad ad ad ad ad ad ad ad ad ad ad ad ad ad ad ad   ................
0100  d3 08 c2 77 ad ad ad ad ad ad ad ad ad ad ad ad   ...w............
0110  ad ad ad ad ad ad ad ad ad ad ad ad ad ad ad ad   ................
0120  ad ad ad ad ad ad ad ad ad ad ad ad ad ad ad ad   ................
0130  ad ad ad ad ad ad ad ad ad ad ad ad ad ad ad ad   ................
0140  d4 08 c2 77 ad ad ad ad ad ad ad ad ad ad ad ad   ...w............
0150  ad ad ad ad ad ad ad ad ad ad ad ad ad ad ad ad   ................
0160  ad ad ad ad ad ad ad ad ad ad ad ad ad ad ad ad   ................
0170  ad ad ad ad ad ad ad ad ad ad ad ad ad ad ad ad   ................
0180  d5 08 c2 77 ad ad ad ad ad ad ad ad ad ad ad ad   ...w............
0190  ad ad ad ad ad ad ad ad ad ad ad ad ad ad ad ad   ................
01a0  ad ad ad ad ad ad ad ad ad ad ad ad ad ad ad ad   ................
01b0  ad ad ad ad ad ad ad ad ad ad ad ad ad ad ad ad   ................
01c0  d6 08 c2 77 ad ad ad ad ad ad ad ad ad ad ad ad   ...w............
01d0  ad ad ad ad ad ad ad ad ad ad ad ad ad ad ad ad   ................
01e0  ad ad ad ad ad ad ad ad ad ad ad ad ad ad ad ad   ................
01f0  ad ad ad ad ad ad ad ad ad ad ad ad ad ad ad ad   ................
0200  d7 08 c2 77 ad ad ad ad ad ad ad ad ad ad ad ad   ...w............
0210  ad ad ad ad ad ad ad ad ad ad ad ad ad ad ad ad   ................
0220  ad ad ad ad ad ad ad ad ad ad ad ad ad ad ad ad   ................
0230  ad ad ad ad ad ad ad ad ad ad ad ad ad ad ad ad   ................

No.     Time           Source                Destination           Protocol Length Info
  14639 5.641906       2.20.3                host                  USB      576    URB_BULK in

Frame 14639: 576 bytes on wire (4608 bits), 576 bytes captured (4608 bits) on interface usbmon2, id 0
USB URB
    [Source: 2.20.3]
    [Destination: host]
    URB id: 0xffff9befdb8fab40
    URB type: URB_COMPLETE ('C')
    URB transfer type: URB_BULK (0x03)
    Endpoint: 0x83, Direction: IN
    Device: 20
    URB bus id: 2
    Device setup request: not relevant ('-')
    Data: present ('\0')
    URB sec: 1765889875
    URB usec: 655094
    URB status: Success (0)
    URB length [bytes]: 512
    Data length [bytes]: 512
    [Request in: 14620]
    [Time from request: 0.000908000 seconds]
    [bInterfaceClass: Unknown (0xffff)]
    Unused Setup Header
    Interval: 0
    Start frame: 0
    Copy of Transfer Flags: 0x00000200, Dir IN
    Number of ISO descriptors: 0
Leftover Capture Data […]: d81801ba000000000000000000000000000000000000000000000000000000000000000000000000000000000000000000000000000000000000000000000000d91801ba00000000000000000000000000000000000000000000000000000000000000000000000000

0000  40 ab 8f db ef 9b ff ff 43 03 83 14 02 00 2d 00   @.......C.....-.
0010  53 57 41 69 00 00 00 00 f6 fe 09 00 00 00 00 00   SWAi............
0020  00 02 00 00 00 02 00 00 00 00 00 00 00 00 00 00   ................
0030  00 00 00 00 00 00 00 00 00 02 00 00 00 00 00 00   ................
0040  d8 18 01 ba 00 00 00 00 00 00 00 00 00 00 00 00   ................
0050  00 00 00 00 00 00 00 00 00 00 00 00 00 00 00 00   ................
0060  00 00 00 00 00 00 00 00 00 00 00 00 00 00 00 00   ................
0070  00 00 00 00 00 00 00 00 00 00 00 00 00 00 00 00   ................
0080  d9 18 01 ba 00 00 00 00 00 00 00 00 00 00 00 00   ................
0090  00 00 00 00 00 00 00 00 00 00 00 00 00 00 00 00   ................
00a0  00 00 00 00 00 00 00 00 00 00 00 00 00 00 00 00   ................
00b0  00 00 00 00 00 00 00 00 00 00 00 00 00 00 00 00   ................
00c0  da 18 01 ba 00 00 00 00 00 00 00 00 00 00 00 00   ................
00d0  00 00 00 00 00 00 00 00 00 00 00 00 00 00 00 00   ................
00e0  00 00 00 00 00 00 00 00 00 00 00 00 00 00 00 00   ................
00f0  00 00 00 00 00 00 00 00 00 00 00 00 00 00 00 00   ................
0100  db 18 01 ba 00 00 00 00 00 00 00 00 00 00 00 00   ................
0110  00 00 00 00 00 00 00 00 00 00 00 00 00 00 00 00   ................
0120  00 00 00 00 00 00 00 00 00 00 00 00 00 00 00 00   ................
0130  00 00 00 00 00 00 00 00 00 00 00 00 00 00 00 00   ................
0140  dc 18 01 ba 00 00 00 00 00 00 00 00 00 00 00 00   ................
0150  00 00 00 00 00 00 00 00 00 00 00 00 00 00 00 00   ................
0160  00 00 00 00 00 00 00 00 00 00 00 00 00 00 00 00   ................
0170  00 00 00 00 00 00 00 00 00 00 00 00 00 00 00 00   ................
0180  dd 18 01 ba 00 00 00 00 00 00 00 00 00 00 00 00   ................
0190  00 00 00 00 00 00 00 00 00 00 00 00 00 00 00 00   ................
01a0  00 00 00 00 00 00 00 00 00 00 00 00 00 00 00 00   ................
01b0  00 00 00 00 00 00 00 00 00 00 00 00 00 00 00 00   ................
01c0  de 18 01 ba 00 00 00 00 00 00 00 00 00 00 00 00   ................
01d0  00 00 00 00 00 00 00 00 00 00 00 00 00 00 00 00   ................
01e0  00 00 00 00 00 00 00 00 00 00 00 00 00 00 00 00   ................
01f0  00 00 00 00 00 00 00 00 00 00 00 00 00 00 00 00   ................
0200  df 18 01 ba 00 00 00 00 00 00 00 00 00 00 00 00   ................
0210  00 00 00 00 00 00 00 00 00 00 00 00 00 00 00 00   ................
0220  00 00 00 00 00 00 00 00 00 00 00 00 00 00 00 00   ................
0230  00 00 00 00 00 00 00 00 00 00 00 00 00 00 00 00   ................

No.     Time           Source                Destination           Protocol Length Info
  17203 5.676141       2.20.3                host                  USB      576    URB_BULK in

Frame 17203: 576 bytes on wire (4608 bits), 576 bytes captured (4608 bits) on interface usbmon2, id 0
USB URB
    [Source: 2.20.3]
    [Destination: host]
    URB id: 0xffff9bee838c8b40
    URB type: URB_COMPLETE ('C')
    URB transfer type: URB_BULK (0x03)
    Endpoint: 0x83, Direction: IN
    Device: 20
    URB bus id: 2
    Device setup request: not relevant ('-')
    Data: present ('\0')
    URB sec: 1765889875
    URB usec: 689329
    URB status: Success (0)
    URB length [bytes]: 512
    Data length [bytes]: 512
    [Request in: 17185]
    [Time from request: 0.000850000 seconds]
    [bInterfaceClass: Unknown (0xffff)]
    Unused Setup Header
    Interval: 0
    Start frame: 0
    Copy of Transfer Flags: 0x00000200, Dir IN
    Number of ISO descriptors: 0
Leftover Capture Data […]: e008be3fadadadadadadadadadadadadadadadadadadadadadadadadadadadadadadadadadadadadadadadadadadadadadadadadadadadadadadadadadadadade108be3fadadadadadadadadadadadadadadadadadadadadadadadadadadadadadadadadadadadadad

0000  40 8b 8c 83 ee 9b ff ff 43 03 83 14 02 00 2d 00   @.......C.....-.
0010  53 57 41 69 00 00 00 00 b1 84 0a 00 00 00 00 00   SWAi............
0020  00 02 00 00 00 02 00 00 00 00 00 00 00 00 00 00   ................
0030  00 00 00 00 00 00 00 00 00 02 00 00 00 00 00 00   ................
0040  e0 08 be 3f ad ad ad ad ad ad ad ad ad ad ad ad   ...?............
0050  ad ad ad ad ad ad ad ad ad ad ad ad ad ad ad ad   ................
0060  ad ad ad ad ad ad ad ad ad ad ad ad ad ad ad ad   ................
0070  ad ad ad ad ad ad ad ad ad ad ad ad ad ad ad ad   ................
0080  e1 08 be 3f ad ad ad ad ad ad ad ad ad ad ad ad   ...?............
0090  ad ad ad ad ad ad ad ad ad ad ad ad ad ad ad ad   ................
00a0  ad ad ad ad ad ad ad ad ad ad ad ad ad ad ad ad   ................
00b0  ad ad ad ad ad ad ad ad ad ad ad ad ad ad ad ad   ................
00c0  e2 08 be 3f ad ad ad ad ad ad ad ad ad ad ad ad   ...?............
00d0  ad ad ad ad ad ad ad ad ad ad ad ad ad ad ad ad   ................
00e0  ad ad ad ad ad ad ad ad ad ad ad ad ad ad ad ad   ................
00f0  ad ad ad ad ad ad ad ad ad ad ad ad ad ad ad ad   ................
0100  e3 08 be 3f ad ad ad ad ad ad ad ad ad ad ad ad   ...?............
0110  ad ad ad ad ad ad ad ad ad ad ad ad ad ad ad ad   ................
0120  ad ad ad ad ad ad ad ad ad ad ad ad ad ad ad ad   ................
0130  ad ad ad ad ad ad ad ad ad ad ad ad ad ad ad ad   ................
0140  e4 08 be 3f ad ad ad ad ad ad ad ad ad ad ad ad   ...?............
0150  ad ad ad ad ad ad ad ad ad ad ad ad ad ad ad ad   ................
0160  ad ad ad ad ad ad ad ad ad ad ad ad ad ad ad ad   ................
0170  ad ad ad ad ad ad ad ad ad ad ad ad ad ad ad ad   ................
0180  e5 08 be 3f ad ad ad ad ad ad ad ad ad ad ad ad   ...?............
0190  ad ad ad ad ad ad ad ad ad ad ad ad ad ad ad ad   ................
01a0  ad ad ad ad ad ad ad ad ad ad ad ad ad ad ad ad   ................
01b0  ad ad ad ad ad ad ad ad ad ad ad ad ad ad ad ad   ................
01c0  e6 08 be 3f ad ad ad ad ad ad ad ad ad ad ad ad   ...?............
01d0  ad ad ad ad ad ad ad ad ad ad ad ad ad ad ad ad   ................
01e0  ad ad ad ad ad ad ad ad ad ad ad ad ad ad ad ad   ................
01f0  ad ad ad ad ad ad ad ad ad ad ad ad ad ad ad ad   ................
0200  e7 08 be 3f ad ad ad ad ad ad ad ad ad ad ad ad   ...?............
0210  ad ad ad ad ad ad ad ad ad ad ad ad ad ad ad ad   ................
0220  ad ad ad ad ad ad ad ad ad ad ad ad ad ad ad ad   ................
0230  ad ad ad ad ad ad ad ad ad ad ad ad ad ad ad ad   ................

No.     Time           Source                Destination           Protocol Length Info
  18259 5.693060       2.20.3                host                  USB      576    URB_BULK in

Frame 18259: 576 bytes on wire (4608 bits), 576 bytes captured (4608 bits) on interface usbmon2, id 0
USB URB
    [Source: 2.20.3]
    [Destination: host]
    URB id: 0xffff9bee838c8c00
    URB type: URB_COMPLETE ('C')
    URB transfer type: URB_BULK (0x03)
    Endpoint: 0x83, Direction: IN
    Device: 20
    URB bus id: 2
    Device setup request: not relevant ('-')
    Data: present ('\0')
    URB sec: 1765889875
    URB usec: 706248
    URB status: Success (0)
    URB length [bytes]: 512
    Data length [bytes]: 512
    [Request in: 18240]
    [Time from request: 0.000863000 seconds]
    [bInterfaceClass: Unknown (0xffff)]
    Unused Setup Header
    Interval: 0
    Start frame: 0
    Copy of Transfer Flags: 0x00000200, Dir IN
    Number of ISO descriptors: 0
Leftover Capture Data […]: e818fe81000000000000000000000000000000000000000000000000000000000000000000000000000000000000000000000000000000000000000000000000e918fe8100000000000000000000000000000000000000000000000000000000000000000000000000

0000  00 8c 8c 83 ee 9b ff ff 43 03 83 14 02 00 2d 00   ........C.....-.
0010  53 57 41 69 00 00 00 00 c8 c6 0a 00 00 00 00 00   SWAi............
0020  00 02 00 00 00 02 00 00 00 00 00 00 00 00 00 00   ................
0030  00 00 00 00 00 00 00 00 00 02 00 00 00 00 00 00   ................
0040  e8 18 fe 81 00 00 00 00 00 00 00 00 00 00 00 00   ................
0050  00 00 00 00 00 00 00 00 00 00 00 00 00 00 00 00   ................
0060  00 00 00 00 00 00 00 00 00 00 00 00 00 00 00 00   ................
0070  00 00 00 00 00 00 00 00 00 00 00 00 00 00 00 00   ................
0080  e9 18 fe 81 00 00 00 00 00 00 00 00 00 00 00 00   ................
0090  00 00 00 00 00 00 00 00 00 00 00 00 00 00 00 00   ................
00a0  00 00 00 00 00 00 00 00 00 00 00 00 00 00 00 00   ................
00b0  00 00 00 00 00 00 00 00 00 00 00 00 00 00 00 00   ................
00c0  ea 18 fe 81 00 00 00 00 00 00 00 00 00 00 00 00   ................
00d0  00 00 00 00 00 00 00 00 00 00 00 00 00 00 00 00   ................
00e0  00 00 00 00 00 00 00 00 00 00 00 00 00 00 00 00   ................
00f0  00 00 00 00 00 00 00 00 00 00 00 00 00 00 00 00   ................
0100  eb 18 fe 81 00 00 00 00 00 00 00 00 00 00 00 00   ................
0110  00 00 00 00 00 00 00 00 00 00 00 00 00 00 00 00   ................
0120  00 00 00 00 00 00 00 00 00 00 00 00 00 00 00 00   ................
0130  00 00 00 00 00 00 00 00 00 00 00 00 00 00 00 00   ................
0140  ec 18 fe 81 00 00 00 00 00 00 00 00 00 00 00 00   ................
0150  00 00 00 00 00 00 00 00 00 00 00 00 00 00 00 00   ................
0160  00 00 00 00 00 00 00 00 00 00 00 00 00 00 00 00   ................
0170  00 00 00 00 00 00 00 00 00 00 00 00 00 00 00 00   ................
0180  ed 18 fe 81 00 00 00 00 00 00 00 00 00 00 00 00   ................
0190  00 00 00 00 00 00 00 00 00 00 00 00 00 00 00 00   ................
01a0  00 00 00 00 00 00 00 00 00 00 00 00 00 00 00 00   ................
01b0  00 00 00 00 00 00 00 00 00 00 00 00 00 00 00 00   ................
01c0  ee 18 fe 81 00 00 00 00 00 00 00 00 00 00 00 00   ................
01d0  00 00 00 00 00 00 00 00 00 00 00 00 00 00 00 00   ................
01e0  00 00 00 00 00 00 00 00 00 00 00 00 00 00 00 00   ................
01f0  00 00 00 00 00 00 00 00 00 00 00 00 00 00 00 00   ................
0200  ef 18 fe 81 00 00 00 00 00 00 00 00 00 00 00 00   ................
0210  00 00 00 00 00 00 00 00 00 00 00 00 00 00 00 00   ................
0220  00 00 00 00 00 00 00 00 00 00 00 00 00 00 00 00   ................
0230  00 00 00 00 00 00 00 00 00 00 00 00 00 00 00 00   ................

No.     Time           Source                Destination           Protocol Length Info
  20773 5.727364       2.20.3                host                  USB      576    URB_BULK in

Frame 20773: 576 bytes on wire (4608 bits), 576 bytes captured (4608 bits) on interface usbmon2, id 0
USB URB
    [Source: 2.20.3]
    [Destination: host]
    URB id: 0xffff9bee838c83c0
    URB type: URB_COMPLETE ('C')
    URB transfer type: URB_BULK (0x03)
    Endpoint: 0x83, Direction: IN
    Device: 20
    URB bus id: 2
    Device setup request: not relevant ('-')
    Data: present ('\0')
    URB sec: 1765889875
    URB usec: 740552
    URB status: Success (0)
    URB length [bytes]: 512
    Data length [bytes]: 512
    [Request in: 20755]
    [Time from request: 0.000879000 seconds]
    [bInterfaceClass: Unknown (0xffff)]
    Unused Setup Header
    Interval: 0
    Start frame: 0
    Copy of Transfer Flags: 0x00000200, Dir IN
    Number of ISO descriptors: 0
Leftover Capture Data […]: f008be07adadadadadadadadadadadadadadadadadadadadadadadadadadadadadadadadadadadadadadadadadadadadadadadadadadadadadadadadadadadadf108be07adadadadadadadadadadadadadadadadadadadadadadadadadadadadadadadadadadadadad

0000  c0 83 8c 83 ee 9b ff ff 43 03 83 14 02 00 2d 00   ........C.....-.
0010  53 57 41 69 00 00 00 00 c8 4c 0b 00 00 00 00 00   SWAi.....L......
0020  00 02 00 00 00 02 00 00 00 00 00 00 00 00 00 00   ................
0030  00 00 00 00 00 00 00 00 00 02 00 00 00 00 00 00   ................
0040  f0 08 be 07 ad ad ad ad ad ad ad ad ad ad ad ad   ................
0050  ad ad ad ad ad ad ad ad ad ad ad ad ad ad ad ad   ................
0060  ad ad ad ad ad ad ad ad ad ad ad ad ad ad ad ad   ................
0070  ad ad ad ad ad ad ad ad ad ad ad ad ad ad ad ad   ................
0080  f1 08 be 07 ad ad ad ad ad ad ad ad ad ad ad ad   ................
0090  ad ad ad ad ad ad ad ad ad ad ad ad ad ad ad ad   ................
00a0  ad ad ad ad ad ad ad ad ad ad ad ad ad ad ad ad   ................
00b0  ad ad ad ad ad ad ad ad ad ad ad ad ad ad ad ad   ................
00c0  f2 08 be 07 ad ad ad ad ad ad ad ad ad ad ad ad   ................
00d0  ad ad ad ad ad ad ad ad ad ad ad ad ad ad ad ad   ................
00e0  ad ad ad ad ad ad ad ad ad ad ad ad ad ad ad ad   ................
00f0  ad ad ad ad ad ad ad ad ad ad ad ad ad ad ad ad   ................
0100  f3 08 be 07 ad ad ad ad ad ad ad ad ad ad ad ad   ................
0110  ad ad ad ad ad ad ad ad ad ad ad ad ad ad ad ad   ................
0120  ad ad ad ad ad ad ad ad ad ad ad ad ad ad ad ad   ................
0130  ad ad ad ad ad ad ad ad ad ad ad ad ad ad ad ad   ................
0140  f4 08 be 07 ad ad ad ad ad ad ad ad ad ad ad ad   ................
0150  ad ad ad ad ad ad ad ad ad ad ad ad ad ad ad ad   ................
0160  ad ad ad ad ad ad ad ad ad ad ad ad ad ad ad ad   ................
0170  ad ad ad ad ad ad ad ad ad ad ad ad ad ad ad ad   ................
0180  f5 08 be 07 ad ad ad ad ad ad ad ad ad ad ad ad   ................
0190  ad ad ad ad ad ad ad ad ad ad ad ad ad ad ad ad   ................
01a0  ad ad ad ad ad ad ad ad ad ad ad ad ad ad ad ad   ................
01b0  ad ad ad ad ad ad ad ad ad ad ad ad ad ad ad ad   ................
01c0  f6 08 be 07 ad ad ad ad ad ad ad ad ad ad ad ad   ................
01d0  ad ad ad ad ad ad ad ad ad ad ad ad ad ad ad ad   ................
01e0  ad ad ad ad ad ad ad ad ad ad ad ad ad ad ad ad   ................
01f0  ad ad ad ad ad ad ad ad ad ad ad ad ad ad ad ad   ................
0200  f7 08 be 07 ad ad ad ad ad ad ad ad ad ad ad ad   ................
0210  ad ad ad ad ad ad ad ad ad ad ad ad ad ad ad ad   ................
0220  ad ad ad ad ad ad ad ad ad ad ad ad ad ad ad ad   ................
0230  ad ad ad ad ad ad ad ad ad ad ad ad ad ad ad ad   ................

No.     Time           Source                Destination           Protocol Length Info
  21893 5.744292       2.20.3                host                  USB      576    URB_BULK in

Frame 21893: 576 bytes on wire (4608 bits), 576 bytes captured (4608 bits) on interface usbmon2, id 0
USB URB
    [Source: 2.20.3]
    [Destination: host]
    URB id: 0xffff9beeb9b013c0
    URB type: URB_COMPLETE ('C')
    URB transfer type: URB_BULK (0x03)
    Endpoint: 0x83, Direction: IN
    Device: 20
    URB bus id: 2
    Device setup request: not relevant ('-')
    Data: present ('\0')
    URB sec: 1765889875
    URB usec: 757480
    URB status: Success (0)
    URB length [bytes]: 512
    Data length [bytes]: 512
    [Request in: 21875]
    [Time from request: 0.000885000 seconds]
    [bInterfaceClass: Unknown (0xffff)]
    Unused Setup Header
    Interval: 0
    Start frame: 0
    Copy of Transfer Flags: 0x00000200, Dir IN
    Number of ISO descriptors: 0
Leftover Capture Data […]: f818fe49000000000000000000000000000000000000000000000000000000000000000000000000000000000000000000000000000000000000000000000000f918fe4900000000000000000000000000000000000000000000000000000000000000000000000000

0000  c0 13 b0 b9 ee 9b ff ff 43 03 83 14 02 00 2d 00   ........C.....-.
0010  53 57 41 69 00 00 00 00 e8 8e 0b 00 00 00 00 00   SWAi............
0020  00 02 00 00 00 02 00 00 00 00 00 00 00 00 00 00   ................
0030  00 00 00 00 00 00 00 00 00 02 00 00 00 00 00 00   ................
0040  f8 18 fe 49 00 00 00 00 00 00 00 00 00 00 00 00   ...I............
0050  00 00 00 00 00 00 00 00 00 00 00 00 00 00 00 00   ................
0060  00 00 00 00 00 00 00 00 00 00 00 00 00 00 00 00   ................
0070  00 00 00 00 00 00 00 00 00 00 00 00 00 00 00 00   ................
0080  f9 18 fe 49 00 00 00 00 00 00 00 00 00 00 00 00   ...I............
0090  00 00 00 00 00 00 00 00 00 00 00 00 00 00 00 00   ................
00a0  00 00 00 00 00 00 00 00 00 00 00 00 00 00 00 00   ................
00b0  00 00 00 00 00 00 00 00 00 00 00 00 00 00 00 00   ................
00c0  fa 18 fe 49 00 00 00 00 00 00 00 00 00 00 00 00   ...I............
00d0  00 00 00 00 00 00 00 00 00 00 00 00 00 00 00 00   ................
00e0  00 00 00 00 00 00 00 00 00 00 00 00 00 00 00 00   ................
00f0  00 00 00 00 00 00 00 00 00 00 00 00 00 00 00 00   ................
0100  fb 18 fe 49 00 00 00 00 00 00 00 00 00 00 00 00   ...I............
0110  00 00 00 00 00 00 00 00 00 00 00 00 00 00 00 00   ................
0120  00 00 00 00 00 00 00 00 00 00 00 00 00 00 00 00   ................
0130  00 00 00 00 00 00 00 00 00 00 00 00 00 00 00 00   ................
0140  fc 18 fe 49 00 00 00 00 00 00 00 00 00 00 00 00   ...I............
0150  00 00 00 00 00 00 00 00 00 00 00 00 00 00 00 00   ................
0160  00 00 00 00 00 00 00 00 00 00 00 00 00 00 00 00   ................
0170  00 00 00 00 00 00 00 00 00 00 00 00 00 00 00 00   ................
0180  fd 18 fe 49 00 00 00 00 00 00 00 00 00 00 00 00   ...I............
0190  00 00 00 00 00 00 00 00 00 00 00 00 00 00 00 00   ................
01a0  00 00 00 00 00 00 00 00 00 00 00 00 00 00 00 00   ................
01b0  00 00 00 00 00 00 00 00 00 00 00 00 00 00 00 00   ................
01c0  fe 18 fe 49 00 00 00 00 00 00 00 00 00 00 00 00   ...I............
01d0  00 00 00 00 00 00 00 00 00 00 00 00 00 00 00 00   ................
01e0  00 00 00 00 00 00 00 00 00 00 00 00 00 00 00 00   ................
01f0  00 00 00 00 00 00 00 00 00 00 00 00 00 00 00 00   ................
0200  ff 18 fe 49 00 00 00 00 00 00 00 00 00 00 00 00   ...I............
0210  00 00 00 00 00 00 00 00 00 00 00 00 00 00 00 00   ................
0220  00 00 00 00 00 00 00 00 00 00 00 00 00 00 00 00   ................
0230  00 00 00 00 00 00 00 00 00 00 00 00 00 00 00 00   ................

No.     Time           Source                Destination           Protocol Length Info
  24433 5.778533       2.20.3                host                  USB      576    URB_BULK in

Frame 24433: 576 bytes on wire (4608 bits), 576 bytes captured (4608 bits) on interface usbmon2, id 0
USB URB
    [Source: 2.20.3]
    [Destination: host]
    URB id: 0xffff9beeb9b01f00
    URB type: URB_COMPLETE ('C')
    URB transfer type: URB_BULK (0x03)
    Endpoint: 0x83, Direction: IN
    Device: 20
    URB bus id: 2
    Device setup request: not relevant ('-')
    Data: present ('\0')
    URB sec: 1765889875
    URB usec: 791721
    URB status: Success (0)
    URB length [bytes]: 512
    Data length [bytes]: 512
    [Request in: 24414]
    [Time from request: 0.000883000 seconds]
    [bInterfaceClass: Unknown (0xffff)]
    Unused Setup Header
    Interval: 0
    Start frame: 0
    Copy of Transfer Flags: 0x00000200, Dir IN
    Number of ISO descriptors: 0
Leftover Capture Data […]: 0009becfadadadadadadadadadadadadadadadadadadadadadadadadadadadadadadadadadadadadadadadadadadadadadadadadadadadadadadadadadadadad0109becfadadadadadadadadadadadadadadadadadadadadadadadadadadadadadadadadadadadadad

0000  00 1f b0 b9 ee 9b ff ff 43 03 83 14 02 00 2d 00   ........C.....-.
0010  53 57 41 69 00 00 00 00 a9 14 0c 00 00 00 00 00   SWAi............
0020  00 02 00 00 00 02 00 00 00 00 00 00 00 00 00 00   ................
0030  00 00 00 00 00 00 00 00 00 02 00 00 00 00 00 00   ................
0040  00 09 be cf ad ad ad ad ad ad ad ad ad ad ad ad   ................
0050  ad ad ad ad ad ad ad ad ad ad ad ad ad ad ad ad   ................
0060  ad ad ad ad ad ad ad ad ad ad ad ad ad ad ad ad   ................
0070  ad ad ad ad ad ad ad ad ad ad ad ad ad ad ad ad   ................
0080  01 09 be cf ad ad ad ad ad ad ad ad ad ad ad ad   ................
0090  ad ad ad ad ad ad ad ad ad ad ad ad ad ad ad ad   ................
00a0  ad ad ad ad ad ad ad ad ad ad ad ad ad ad ad ad   ................
00b0  ad ad ad ad ad ad ad ad ad ad ad ad ad ad ad ad   ................
00c0  02 09 be cf ad ad ad ad ad ad ad ad ad ad ad ad   ................
00d0  ad ad ad ad ad ad ad ad ad ad ad ad ad ad ad ad   ................
00e0  ad ad ad ad ad ad ad ad ad ad ad ad ad ad ad ad   ................
00f0  ad ad ad ad ad ad ad ad ad ad ad ad ad ad ad ad   ................
0100  03 09 be cf ad ad ad ad ad ad ad ad ad ad ad ad   ................
0110  ad ad ad ad ad ad ad ad ad ad ad ad ad ad ad ad   ................
0120  ad ad ad ad ad ad ad ad ad ad ad ad ad ad ad ad   ................
0130  ad ad ad ad ad ad ad ad ad ad ad ad ad ad ad ad   ................
0140  04 09 be cf ad ad ad ad ad ad ad ad ad ad ad ad   ................
0150  ad ad ad ad ad ad ad ad ad ad ad ad ad ad ad ad   ................
0160  ad ad ad ad ad ad ad ad ad ad ad ad ad ad ad ad   ................
0170  ad ad ad ad ad ad ad ad ad ad ad ad ad ad ad ad   ................
0180  05 09 be cf ad ad ad ad ad ad ad ad ad ad ad ad   ................
0190  ad ad ad ad ad ad ad ad ad ad ad ad ad ad ad ad   ................
01a0  ad ad ad ad ad ad ad ad ad ad ad ad ad ad ad ad   ................
01b0  ad ad ad ad ad ad ad ad ad ad ad ad ad ad ad ad   ................
01c0  06 09 be cf ad ad ad ad ad ad ad ad ad ad ad ad   ................
01d0  ad ad ad ad ad ad ad ad ad ad ad ad ad ad ad ad   ................
01e0  ad ad ad ad ad ad ad ad ad ad ad ad ad ad ad ad   ................
01f0  ad ad ad ad ad ad ad ad ad ad ad ad ad ad ad ad   ................
0200  07 09 be cf ad ad ad ad ad ad ad ad ad ad ad ad   ................
0210  ad ad ad ad ad ad ad ad ad ad ad ad ad ad ad ad   ................
0220  ad ad ad ad ad ad ad ad ad ad ad ad ad ad ad ad   ................
0230  ad ad ad ad ad ad ad ad ad ad ad ad ad ad ad ad   ................

No.     Time           Source                Destination           Protocol Length Info
  25493 5.795445       2.20.3                host                  USB      576    URB_BULK in

Frame 25493: 576 bytes on wire (4608 bits), 576 bytes captured (4608 bits) on interface usbmon2, id 0
USB URB
    [Source: 2.20.3]
    [Destination: host]
    URB id: 0xffff9beeb9b01f00
    URB type: URB_COMPLETE ('C')
    URB transfer type: URB_BULK (0x03)
    Endpoint: 0x83, Direction: IN
    Device: 20
    URB bus id: 2
    Device setup request: not relevant ('-')
    Data: present ('\0')
    URB sec: 1765889875
    URB usec: 808633
    URB status: Success (0)
    URB length [bytes]: 512
    Data length [bytes]: 512
    [Request in: 25474]
    [Time from request: 0.000828000 seconds]
    [bInterfaceClass: Unknown (0xffff)]
    Unused Setup Header
    Interval: 0
    Start frame: 0
    Copy of Transfer Flags: 0x00000200, Dir IN
    Number of ISO descriptors: 0
Leftover Capture Data […]: 081903120000000000000000000000000000000000000000000000000000000000000000000000000000000000000000000000000000000000000000000000000919031200000000000000000000000000000000000000000000000000000000000000000000000000

0000  00 1f b0 b9 ee 9b ff ff 43 03 83 14 02 00 2d 00   ........C.....-.
0010  53 57 41 69 00 00 00 00 b9 56 0c 00 00 00 00 00   SWAi.....V......
0020  00 02 00 00 00 02 00 00 00 00 00 00 00 00 00 00   ................
0030  00 00 00 00 00 00 00 00 00 02 00 00 00 00 00 00   ................
0040  08 19 03 12 00 00 00 00 00 00 00 00 00 00 00 00   ................
0050  00 00 00 00 00 00 00 00 00 00 00 00 00 00 00 00   ................
0060  00 00 00 00 00 00 00 00 00 00 00 00 00 00 00 00   ................
0070  00 00 00 00 00 00 00 00 00 00 00 00 00 00 00 00   ................
0080  09 19 03 12 00 00 00 00 00 00 00 00 00 00 00 00   ................
0090  00 00 00 00 00 00 00 00 00 00 00 00 00 00 00 00   ................
00a0  00 00 00 00 00 00 00 00 00 00 00 00 00 00 00 00   ................
00b0  00 00 00 00 00 00 00 00 00 00 00 00 00 00 00 00   ................
00c0  0a 19 03 12 00 00 00 00 00 00 00 00 00 00 00 00   ................
00d0  00 00 00 00 00 00 00 00 00 00 00 00 00 00 00 00   ................
00e0  00 00 00 00 00 00 00 00 00 00 00 00 00 00 00 00   ................
00f0  00 00 00 00 00 00 00 00 00 00 00 00 00 00 00 00   ................
0100  0b 19 03 12 00 00 00 00 00 00 00 00 00 00 00 00   ................
0110  00 00 00 00 00 00 00 00 00 00 00 00 00 00 00 00   ................
0120  00 00 00 00 00 00 00 00 00 00 00 00 00 00 00 00   ................
0130  00 00 00 00 00 00 00 00 00 00 00 00 00 00 00 00   ................
0140  0c 19 03 12 00 00 00 00 00 00 00 00 00 00 00 00   ................
0150  00 00 00 00 00 00 00 00 00 00 00 00 00 00 00 00   ................
0160  00 00 00 00 00 00 00 00 00 00 00 00 00 00 00 00   ................
0170  00 00 00 00 00 00 00 00 00 00 00 00 00 00 00 00   ................
0180  0d 19 03 12 00 00 00 00 00 00 00 00 00 00 00 00   ................
0190  00 00 00 00 00 00 00 00 00 00 00 00 00 00 00 00   ................
01a0  00 00 00 00 00 00 00 00 00 00 00 00 00 00 00 00   ................
01b0  00 00 00 00 00 00 00 00 00 00 00 00 00 00 00 00   ................
01c0  0e 19 03 12 00 00 00 00 00 00 00 00 00 00 00 00   ................
01d0  00 00 00 00 00 00 00 00 00 00 00 00 00 00 00 00   ................
01e0  00 00 00 00 00 00 00 00 00 00 00 00 00 00 00 00   ................
01f0  00 00 00 00 00 00 00 00 00 00 00 00 00 00 00 00   ................
0200  0f 19 03 12 00 00 00 00 00 00 00 00 00 00 00 00   ................
0210  00 00 00 00 00 00 00 00 00 00 00 00 00 00 00 00   ................
0220  00 00 00 00 00 00 00 00 00 00 00 00 00 00 00 00   ................
0230  00 00 00 00 00 00 00 00 00 00 00 00 00 00 00 00   ................

No.     Time           Source                Destination           Protocol Length Info
  28035 5.829758       2.20.3                host                  USB      576    URB_BULK in

Frame 28035: 576 bytes on wire (4608 bits), 576 bytes captured (4608 bits) on interface usbmon2, id 0
USB URB
    [Source: 2.20.3]
    [Destination: host]
    URB id: 0xffff9beeb9b01c00
    URB type: URB_COMPLETE ('C')
    URB transfer type: URB_BULK (0x03)
    Endpoint: 0x83, Direction: IN
    Device: 20
    URB bus id: 2
    Device setup request: not relevant ('-')
    Data: present ('\0')
    URB sec: 1765889875
    URB usec: 842946
    URB status: Success (0)
    URB length [bytes]: 512
    Data length [bytes]: 512
    [Request in: 28016]
    [Time from request: 0.000868000 seconds]
    [bInterfaceClass: Unknown (0xffff)]
    Unused Setup Header
    Interval: 0
    Start frame: 0
    Copy of Transfer Flags: 0x00000200, Dir IN
    Number of ISO descriptors: 0
Leftover Capture Data […]: 1009bf97adadadadadadadadadadadadadadadadadadadadadadadadadadadadadadadadadadadadadadadadadadadadadadadadadadadadadadadadadadadad1109bf97adadadadadadadadadadadadadadadadadadadadadadadadadadadadadadadadadadadadad

0000  00 1c b0 b9 ee 9b ff ff 43 03 83 14 02 00 2d 00   ........C.....-.
0010  53 57 41 69 00 00 00 00 c2 dc 0c 00 00 00 00 00   SWAi............
0020  00 02 00 00 00 02 00 00 00 00 00 00 00 00 00 00   ................
0030  00 00 00 00 00 00 00 00 00 02 00 00 00 00 00 00   ................
0040  10 09 bf 97 ad ad ad ad ad ad ad ad ad ad ad ad   ................
0050  ad ad ad ad ad ad ad ad ad ad ad ad ad ad ad ad   ................
0060  ad ad ad ad ad ad ad ad ad ad ad ad ad ad ad ad   ................
0070  ad ad ad ad ad ad ad ad ad ad ad ad ad ad ad ad   ................
0080  11 09 bf 97 ad ad ad ad ad ad ad ad ad ad ad ad   ................
0090  ad ad ad ad ad ad ad ad ad ad ad ad ad ad ad ad   ................
00a0  ad ad ad ad ad ad ad ad ad ad ad ad ad ad ad ad   ................
00b0  ad ad ad ad ad ad ad ad ad ad ad ad ad ad ad ad   ................
00c0  12 09 bf 97 ad ad ad ad ad ad ad ad ad ad ad ad   ................
00d0  ad ad ad ad ad ad ad ad ad ad ad ad ad ad ad ad   ................
00e0  ad ad ad ad ad ad ad ad ad ad ad ad ad ad ad ad   ................
00f0  ad ad ad ad ad ad ad ad ad ad ad ad ad ad ad ad   ................
0100  13 09 bf 97 ad ad ad ad ad ad ad ad ad ad ad ad   ................
0110  ad ad ad ad ad ad ad ad ad ad ad ad ad ad ad ad   ................
0120  ad ad ad ad ad ad ad ad ad ad ad ad ad ad ad ad   ................
0130  ad ad ad ad ad ad ad ad ad ad ad ad ad ad ad ad   ................
0140  14 09 bf 97 ad ad ad ad ad ad ad ad ad ad ad ad   ................
0150  ad ad ad ad ad ad ad ad ad ad ad ad ad ad ad ad   ................
0160  ad ad ad ad ad ad ad ad ad ad ad ad ad ad ad ad   ................
0170  ad ad ad ad ad ad ad ad ad ad ad ad ad ad ad ad   ................
0180  15 09 bf 97 ad ad ad ad ad ad ad ad ad ad ad ad   ................
0190  ad ad ad ad ad ad ad ad ad ad ad ad ad ad ad ad   ................
01a0  ad ad ad ad ad ad ad ad ad ad ad ad ad ad ad ad   ................
01b0  ad ad ad ad ad ad ad ad ad ad ad ad ad ad ad ad   ................
01c0  16 09 bf 97 ad ad ad ad ad ad ad ad ad ad ad ad   ................
01d0  ad ad ad ad ad ad ad ad ad ad ad ad ad ad ad ad   ................
01e0  ad ad ad ad ad ad ad ad ad ad ad ad ad ad ad ad   ................
01f0  ad ad ad ad ad ad ad ad ad ad ad ad ad ad ad ad   ................
0200  17 09 bf 97 ad ad ad ad ad ad ad ad ad ad ad ad   ................
0210  ad ad ad ad ad ad ad ad ad ad ad ad ad ad ad ad   ................
0220  ad ad ad ad ad ad ad ad ad ad ad ad ad ad ad ad   ................
0230  ad ad ad ad ad ad ad ad ad ad ad ad ad ad ad ad   ................

No.     Time           Source                Destination           Protocol Length Info
  29117 5.846640       2.20.3                host                  USB      576    URB_BULK in

Frame 29117: 576 bytes on wire (4608 bits), 576 bytes captured (4608 bits) on interface usbmon2, id 0
USB URB
    [Source: 2.20.3]
    [Destination: host]
    URB id: 0xffff9beeb9b01840
    URB type: URB_COMPLETE ('C')
    URB transfer type: URB_BULK (0x03)
    Endpoint: 0x83, Direction: IN
    Device: 20
    URB bus id: 2
    Device setup request: not relevant ('-')
    Data: present ('\0')
    URB sec: 1765889875
    URB usec: 859828
    URB status: Success (0)
    URB length [bytes]: 512
    Data length [bytes]: 512
    [Request in: 29099]
    [Time from request: 0.000877000 seconds]
    [bInterfaceClass: Unknown (0xffff)]
    Unused Setup Header
    Interval: 0
    Start frame: 0
    Copy of Transfer Flags: 0x00000200, Dir IN
    Number of ISO descriptors: 0
Leftover Capture Data […]: 1819fed90000000000000000000000000000000000000000000000000000000000000000000000000000000000000000000000000000000000000000000000001919fed900000000000000000000000000000000000000000000000000000000000000000000000000

0000  40 18 b0 b9 ee 9b ff ff 43 03 83 14 02 00 2d 00   @.......C.....-.
0010  53 57 41 69 00 00 00 00 b4 1e 0d 00 00 00 00 00   SWAi............
0020  00 02 00 00 00 02 00 00 00 00 00 00 00 00 00 00   ................
0030  00 00 00 00 00 00 00 00 00 02 00 00 00 00 00 00   ................
0040  18 19 fe d9 00 00 00 00 00 00 00 00 00 00 00 00   ................
0050  00 00 00 00 00 00 00 00 00 00 00 00 00 00 00 00   ................
0060  00 00 00 00 00 00 00 00 00 00 00 00 00 00 00 00   ................
0070  00 00 00 00 00 00 00 00 00 00 00 00 00 00 00 00   ................
0080  19 19 fe d9 00 00 00 00 00 00 00 00 00 00 00 00   ................
0090  00 00 00 00 00 00 00 00 00 00 00 00 00 00 00 00   ................
00a0  00 00 00 00 00 00 00 00 00 00 00 00 00 00 00 00   ................
00b0  00 00 00 00 00 00 00 00 00 00 00 00 00 00 00 00   ................
00c0  1a 19 fe d9 00 00 00 00 00 00 00 00 00 00 00 00   ................
00d0  00 00 00 00 00 00 00 00 00 00 00 00 00 00 00 00   ................
00e0  00 00 00 00 00 00 00 00 00 00 00 00 00 00 00 00   ................
00f0  00 00 00 00 00 00 00 00 00 00 00 00 00 00 00 00   ................
0100  1b 19 fe d9 00 00 00 00 00 00 00 00 00 00 00 00   ................
0110  00 00 00 00 00 00 00 00 00 00 00 00 00 00 00 00   ................
0120  00 00 00 00 00 00 00 00 00 00 00 00 00 00 00 00   ................
0130  00 00 00 00 00 00 00 00 00 00 00 00 00 00 00 00   ................
0140  1c 19 fe d9 00 00 00 00 00 00 00 00 00 00 00 00   ................
0150  00 00 00 00 00 00 00 00 00 00 00 00 00 00 00 00   ................
0160  00 00 00 00 00 00 00 00 00 00 00 00 00 00 00 00   ................
0170  00 00 00 00 00 00 00 00 00 00 00 00 00 00 00 00   ................
0180  1d 19 fe d9 00 00 00 00 00 00 00 00 00 00 00 00   ................
0190  00 00 00 00 00 00 00 00 00 00 00 00 00 00 00 00   ................
01a0  00 00 00 00 00 00 00 00 00 00 00 00 00 00 00 00   ................
01b0  00 00 00 00 00 00 00 00 00 00 00 00 00 00 00 00   ................
01c0  1e 19 fe d9 00 00 00 00 00 00 00 00 00 00 00 00   ................
01d0  00 00 00 00 00 00 00 00 00 00 00 00 00 00 00 00   ................
01e0  00 00 00 00 00 00 00 00 00 00 00 00 00 00 00 00   ................
01f0  00 00 00 00 00 00 00 00 00 00 00 00 00 00 00 00   ................
0200  1f 19 fe d9 00 00 00 00 00 00 00 00 00 00 00 00   ................
0210  00 00 00 00 00 00 00 00 00 00 00 00 00 00 00 00   ................
0220  00 00 00 00 00 00 00 00 00 00 00 00 00 00 00 00   ................
0230  00 00 00 00 00 00 00 00 00 00 00 00 00 00 00 00   ................

No.     Time           Source                Destination           Protocol Length Info
  31697 5.880909       2.20.3                host                  USB      576    URB_BULK in

Frame 31697: 576 bytes on wire (4608 bits), 576 bytes captured (4608 bits) on interface usbmon2, id 0
USB URB
    [Source: 2.20.3]
    [Destination: host]
    URB id: 0xffff9beeb9b01840
    URB type: URB_COMPLETE ('C')
    URB transfer type: URB_BULK (0x03)
    Endpoint: 0x83, Direction: IN
    Device: 20
    URB bus id: 2
    Device setup request: not relevant ('-')
    Data: present ('\0')
    URB sec: 1765889875
    URB usec: 894097
    URB status: Success (0)
    URB length [bytes]: 512
    Data length [bytes]: 512
    [Request in: 31678]
    [Time from request: 0.000843000 seconds]
    [bInterfaceClass: Unknown (0xffff)]
    Unused Setup Header
    Interval: 0
    Start frame: 0
    Copy of Transfer Flags: 0x00000200, Dir IN
    Number of ISO descriptors: 0
Leftover Capture Data […]: 2009c05fadadadadadadadadadadadadadadadadadadadadadadadadadadadadadadadadadadadadadadadadadadadadadadadadadadadadadadadadadadadad2109c05fadadadadadadadadadadadadadadadadadadadadadadadadadadadadadadadadadadadadad

0000  40 18 b0 b9 ee 9b ff ff 43 03 83 14 02 00 2d 00   @.......C.....-.
0010  53 57 41 69 00 00 00 00 91 a4 0d 00 00 00 00 00   SWAi............
0020  00 02 00 00 00 02 00 00 00 00 00 00 00 00 00 00   ................
0030  00 00 00 00 00 00 00 00 00 02 00 00 00 00 00 00   ................
0040  20 09 c0 5f ad ad ad ad ad ad ad ad ad ad ad ad    .._............
0050  ad ad ad ad ad ad ad ad ad ad ad ad ad ad ad ad   ................
0060  ad ad ad ad ad ad ad ad ad ad ad ad ad ad ad ad   ................
0070  ad ad ad ad ad ad ad ad ad ad ad ad ad ad ad ad   ................
0080  21 09 c0 5f ad ad ad ad ad ad ad ad ad ad ad ad   !.._............
0090  ad ad ad ad ad ad ad ad ad ad ad ad ad ad ad ad   ................
00a0  ad ad ad ad ad ad ad ad ad ad ad ad ad ad ad ad   ................
00b0  ad ad ad ad ad ad ad ad ad ad ad ad ad ad ad ad   ................
00c0  22 09 c0 5f ad ad ad ad ad ad ad ad ad ad ad ad   ".._............
00d0  ad ad ad ad ad ad ad ad ad ad ad ad ad ad ad ad   ................
00e0  ad ad ad ad ad ad ad ad ad ad ad ad ad ad ad ad   ................
00f0  ad ad ad ad ad ad ad ad ad ad ad ad ad ad ad ad   ................
0100  23 09 c0 5f ad ad ad ad ad ad ad ad ad ad ad ad   #.._............
0110  ad ad ad ad ad ad ad ad ad ad ad ad ad ad ad ad   ................
0120  ad ad ad ad ad ad ad ad ad ad ad ad ad ad ad ad   ................
0130  ad ad ad ad ad ad ad ad ad ad ad ad ad ad ad ad   ................
0140  24 09 c0 5f ad ad ad ad ad ad ad ad ad ad ad ad   $.._............
0150  ad ad ad ad ad ad ad ad ad ad ad ad ad ad ad ad   ................
0160  ad ad ad ad ad ad ad ad ad ad ad ad ad ad ad ad   ................
0170  ad ad ad ad ad ad ad ad ad ad ad ad ad ad ad ad   ................
0180  25 09 c0 5f ad ad ad ad ad ad ad ad ad ad ad ad   %.._............
0190  ad ad ad ad ad ad ad ad ad ad ad ad ad ad ad ad   ................
01a0  ad ad ad ad ad ad ad ad ad ad ad ad ad ad ad ad   ................
01b0  ad ad ad ad ad ad ad ad ad ad ad ad ad ad ad ad   ................
01c0  26 09 c0 5f ad ad ad ad ad ad ad ad ad ad ad ad   &.._............
01d0  ad ad ad ad ad ad ad ad ad ad ad ad ad ad ad ad   ................
01e0  ad ad ad ad ad ad ad ad ad ad ad ad ad ad ad ad   ................
01f0  ad ad ad ad ad ad ad ad ad ad ad ad ad ad ad ad   ................
0200  27 09 c0 5f ad ad ad ad ad ad ad ad ad ad ad ad   '.._............
0210  ad ad ad ad ad ad ad ad ad ad ad ad ad ad ad ad   ................
0220  ad ad ad ad ad ad ad ad ad ad ad ad ad ad ad ad   ................
0230  ad ad ad ad ad ad ad ad ad ad ad ad ad ad ad ad   ................

No.     Time           Source                Destination           Protocol Length Info
  32747 5.897835       2.20.3                host                  USB      576    URB_BULK in

Frame 32747: 576 bytes on wire (4608 bits), 576 bytes captured (4608 bits) on interface usbmon2, id 0
USB URB
    [Source: 2.20.3]
    [Destination: host]
    URB id: 0xffff9beeb9b01180
    URB type: URB_COMPLETE ('C')
    URB transfer type: URB_BULK (0x03)
    Endpoint: 0x83, Direction: IN
    Device: 20
    URB bus id: 2
    Device setup request: not relevant ('-')
    Data: present ('\0')
    URB sec: 1765889875
    URB usec: 911023
    URB status: Success (0)
    URB length [bytes]: 512
    Data length [bytes]: 512
    [Request in: 32728]
    [Time from request: 0.000849000 seconds]
    [bInterfaceClass: Unknown (0xffff)]
    Unused Setup Header
    Interval: 0
    Start frame: 0
    Copy of Transfer Flags: 0x00000200, Dir IN
    Number of ISO descriptors: 0
Leftover Capture Data […]: 2819fea10000000000000000000000000000000000000000000000000000000000000000000000000000000000000000000000000000000000000000000000002919fea100000000000000000000000000000000000000000000000000000000000000000000000000

0000  80 11 b0 b9 ee 9b ff ff 43 03 83 14 02 00 2d 00   ........C.....-.
0010  53 57 41 69 00 00 00 00 af e6 0d 00 00 00 00 00   SWAi............
0020  00 02 00 00 00 02 00 00 00 00 00 00 00 00 00 00   ................
0030  00 00 00 00 00 00 00 00 00 02 00 00 00 00 00 00   ................
0040  28 19 fe a1 00 00 00 00 00 00 00 00 00 00 00 00   (...............
0050  00 00 00 00 00 00 00 00 00 00 00 00 00 00 00 00   ................
0060  00 00 00 00 00 00 00 00 00 00 00 00 00 00 00 00   ................
0070  00 00 00 00 00 00 00 00 00 00 00 00 00 00 00 00   ................
0080  29 19 fe a1 00 00 00 00 00 00 00 00 00 00 00 00   )...............
0090  00 00 00 00 00 00 00 00 00 00 00 00 00 00 00 00   ................
00a0  00 00 00 00 00 00 00 00 00 00 00 00 00 00 00 00   ................
00b0  00 00 00 00 00 00 00 00 00 00 00 00 00 00 00 00   ................
00c0  2a 19 fe a1 00 00 00 00 00 00 00 00 00 00 00 00   *...............
00d0  00 00 00 00 00 00 00 00 00 00 00 00 00 00 00 00   ................
00e0  00 00 00 00 00 00 00 00 00 00 00 00 00 00 00 00   ................
00f0  00 00 00 00 00 00 00 00 00 00 00 00 00 00 00 00   ................
0100  2b 19 fe a1 00 00 00 00 00 00 00 00 00 00 00 00   +...............
0110  00 00 00 00 00 00 00 00 00 00 00 00 00 00 00 00   ................
0120  00 00 00 00 00 00 00 00 00 00 00 00 00 00 00 00   ................
0130  00 00 00 00 00 00 00 00 00 00 00 00 00 00 00 00   ................
0140  2c 19 fe a1 00 00 00 00 00 00 00 00 00 00 00 00   ,...............
0150  00 00 00 00 00 00 00 00 00 00 00 00 00 00 00 00   ................
0160  00 00 00 00 00 00 00 00 00 00 00 00 00 00 00 00   ................
0170  00 00 00 00 00 00 00 00 00 00 00 00 00 00 00 00   ................
0180  2d 19 fe a1 00 00 00 00 00 00 00 00 00 00 00 00   -...............
0190  00 00 00 00 00 00 00 00 00 00 00 00 00 00 00 00   ................
01a0  00 00 00 00 00 00 00 00 00 00 00 00 00 00 00 00   ................
01b0  00 00 00 00 00 00 00 00 00 00 00 00 00 00 00 00   ................
01c0  2e 19 fe a1 00 00 00 00 00 00 00 00 00 00 00 00   ................
01d0  00 00 00 00 00 00 00 00 00 00 00 00 00 00 00 00   ................
01e0  00 00 00 00 00 00 00 00 00 00 00 00 00 00 00 00   ................
01f0  00 00 00 00 00 00 00 00 00 00 00 00 00 00 00 00   ................
0200  2f 19 fe a1 00 00 00 00 00 00 00 00 00 00 00 00   /...............
0210  00 00 00 00 00 00 00 00 00 00 00 00 00 00 00 00   ................
0220  00 00 00 00 00 00 00 00 00 00 00 00 00 00 00 00   ................
0230  00 00 00 00 00 00 00 00 00 00 00 00 00 00 00 00   ................

No.     Time           Source                Destination           Protocol Length Info
  35279 5.932139       2.20.3                host                  USB      576    URB_BULK in

Frame 35279: 576 bytes on wire (4608 bits), 576 bytes captured (4608 bits) on interface usbmon2, id 0
USB URB
    [Source: 2.20.3]
    [Destination: host]
    URB id: 0xffff9beeb9b01540
    URB type: URB_COMPLETE ('C')
    URB transfer type: URB_BULK (0x03)
    Endpoint: 0x83, Direction: IN
    Device: 20
    URB bus id: 2
    Device setup request: not relevant ('-')
    Data: present ('\0')
    URB sec: 1765889875
    URB usec: 945327
    URB status: Success (0)
    URB length [bytes]: 512
    Data length [bytes]: 512
    [Request in: 35260]
    [Time from request: 0.000846000 seconds]
    [bInterfaceClass: Unknown (0xffff)]
    Unused Setup Header
    Interval: 0
    Start frame: 0
    Copy of Transfer Flags: 0x00000200, Dir IN
    Number of ISO descriptors: 0
Leftover Capture Data […]: 3009c327adadadadadadadadadadadadadadadadadadadadadadadadadadadadadadadadadadadadadadadadadadadadadadadadadadadadadadadadadadadad3109c327adadadadadadadadadadadadadadadadadadadadadadadadadadadadadadadadadadadadad

0000  40 15 b0 b9 ee 9b ff ff 43 03 83 14 02 00 2d 00   @.......C.....-.
0010  53 57 41 69 00 00 00 00 af 6c 0e 00 00 00 00 00   SWAi.....l......
0020  00 02 00 00 00 02 00 00 00 00 00 00 00 00 00 00   ................
0030  00 00 00 00 00 00 00 00 00 02 00 00 00 00 00 00   ................
0040  30 09 c3 27 ad ad ad ad ad ad ad ad ad ad ad ad   0..'............
0050  ad ad ad ad ad ad ad ad ad ad ad ad ad ad ad ad   ................
0060  ad ad ad ad ad ad ad ad ad ad ad ad ad ad ad ad   ................
0070  ad ad ad ad ad ad ad ad ad ad ad ad ad ad ad ad   ................
0080  31 09 c3 27 ad ad ad ad ad ad ad ad ad ad ad ad   1..'............
0090  ad ad ad ad ad ad ad ad ad ad ad ad ad ad ad ad   ................
00a0  ad ad ad ad ad ad ad ad ad ad ad ad ad ad ad ad   ................
00b0  ad ad ad ad ad ad ad ad ad ad ad ad ad ad ad ad   ................
00c0  32 09 c3 27 ad ad ad ad ad ad ad ad ad ad ad ad   2..'............
00d0  ad ad ad ad ad ad ad ad ad ad ad ad ad ad ad ad   ................
00e0  ad ad ad ad ad ad ad ad ad ad ad ad ad ad ad ad   ................
00f0  ad ad ad ad ad ad ad ad ad ad ad ad ad ad ad ad   ................
0100  33 09 c3 27 ad ad ad ad ad ad ad ad ad ad ad ad   3..'............
0110  ad ad ad ad ad ad ad ad ad ad ad ad ad ad ad ad   ................
0120  ad ad ad ad ad ad ad ad ad ad ad ad ad ad ad ad   ................
0130  ad ad ad ad ad ad ad ad ad ad ad ad ad ad ad ad   ................
0140  34 09 c3 27 ad ad ad ad ad ad ad ad ad ad ad ad   4..'............
0150  ad ad ad ad ad ad ad ad ad ad ad ad ad ad ad ad   ................
0160  ad ad ad ad ad ad ad ad ad ad ad ad ad ad ad ad   ................
0170  ad ad ad ad ad ad ad ad ad ad ad ad ad ad ad ad   ................
0180  35 09 c3 27 ad ad ad ad ad ad ad ad ad ad ad ad   5..'............
0190  ad ad ad ad ad ad ad ad ad ad ad ad ad ad ad ad   ................
01a0  ad ad ad ad ad ad ad ad ad ad ad ad ad ad ad ad   ................
01b0  ad ad ad ad ad ad ad ad ad ad ad ad ad ad ad ad   ................
01c0  36 09 c3 27 ad ad ad ad ad ad ad ad ad ad ad ad   6..'............
01d0  ad ad ad ad ad ad ad ad ad ad ad ad ad ad ad ad   ................
01e0  ad ad ad ad ad ad ad ad ad ad ad ad ad ad ad ad   ................
01f0  ad ad ad ad ad ad ad ad ad ad ad ad ad ad ad ad   ................
0200  37 09 c3 27 ad ad ad ad ad ad ad ad ad ad ad ad   7..'............
0210  ad ad ad ad ad ad ad ad ad ad ad ad ad ad ad ad   ................
0220  ad ad ad ad ad ad ad ad ad ad ad ad ad ad ad ad   ................
0230  ad ad ad ad ad ad ad ad ad ad ad ad ad ad ad ad   ................

No.     Time           Source                Destination           Protocol Length Info
  36373 5.949064       2.20.3                host                  USB      576    URB_BULK in

Frame 36373: 576 bytes on wire (4608 bits), 576 bytes captured (4608 bits) on interface usbmon2, id 0
USB URB
    [Source: 2.20.3]
    [Destination: host]
    URB id: 0xffff9beeb9b01600
    URB type: URB_COMPLETE ('C')
    URB transfer type: URB_BULK (0x03)
    Endpoint: 0x83, Direction: IN
    Device: 20
    URB bus id: 2
    Device setup request: not relevant ('-')
    Data: present ('\0')
    URB sec: 1765889875
    URB usec: 962252
    URB status: Success (0)
    URB length [bytes]: 512
    Data length [bytes]: 512
    [Request in: 36354]
    [Time from request: 0.000907000 seconds]
    [bInterfaceClass: Unknown (0xffff)]
    Unused Setup Header
    Interval: 0
    Start frame: 0
    Copy of Transfer Flags: 0x00000200, Dir IN
    Number of ISO descriptors: 0
Leftover Capture Data […]: 3819fe690000000000000000000000000000000000000000000000000000000000000000000000000000000000000000000000000000000000000000000000003919fe6900000000000000000000000000000000000000000000000000000000000000000000000000

0000  00 16 b0 b9 ee 9b ff ff 43 03 83 14 02 00 2d 00   ........C.....-.
0010  53 57 41 69 00 00 00 00 cc ae 0e 00 00 00 00 00   SWAi............
0020  00 02 00 00 00 02 00 00 00 00 00 00 00 00 00 00   ................
0030  00 00 00 00 00 00 00 00 00 02 00 00 00 00 00 00   ................
0040  38 19 fe 69 00 00 00 00 00 00 00 00 00 00 00 00   8..i............
0050  00 00 00 00 00 00 00 00 00 00 00 00 00 00 00 00   ................
0060  00 00 00 00 00 00 00 00 00 00 00 00 00 00 00 00   ................
0070  00 00 00 00 00 00 00 00 00 00 00 00 00 00 00 00   ................
0080  39 19 fe 69 00 00 00 00 00 00 00 00 00 00 00 00   9..i............
0090  00 00 00 00 00 00 00 00 00 00 00 00 00 00 00 00   ................
00a0  00 00 00 00 00 00 00 00 00 00 00 00 00 00 00 00   ................
00b0  00 00 00 00 00 00 00 00 00 00 00 00 00 00 00 00   ................
00c0  3a 19 fe 69 00 00 00 00 00 00 00 00 00 00 00 00   :..i............
00d0  00 00 00 00 00 00 00 00 00 00 00 00 00 00 00 00   ................
00e0  00 00 00 00 00 00 00 00 00 00 00 00 00 00 00 00   ................
00f0  00 00 00 00 00 00 00 00 00 00 00 00 00 00 00 00   ................
0100  3b 19 fe 69 00 00 00 00 00 00 00 00 00 00 00 00   ;..i............
0110  00 00 00 00 00 00 00 00 00 00 00 00 00 00 00 00   ................
0120  00 00 00 00 00 00 00 00 00 00 00 00 00 00 00 00   ................
0130  00 00 00 00 00 00 00 00 00 00 00 00 00 00 00 00   ................
0140  3c 19 fe 69 00 00 00 00 00 00 00 00 00 00 00 00   <..i............
0150  00 00 00 00 00 00 00 00 00 00 00 00 00 00 00 00   ................
0160  00 00 00 00 00 00 00 00 00 00 00 00 00 00 00 00   ................
0170  00 00 00 00 00 00 00 00 00 00 00 00 00 00 00 00   ................
0180  3d 19 fe 69 00 00 00 00 00 00 00 00 00 00 00 00   =..i............
0190  00 00 00 00 00 00 00 00 00 00 00 00 00 00 00 00   ................
01a0  00 00 00 00 00 00 00 00 00 00 00 00 00 00 00 00   ................
01b0  00 00 00 00 00 00 00 00 00 00 00 00 00 00 00 00   ................
01c0  3e 19 fe 69 00 00 00 00 00 00 00 00 00 00 00 00   >..i............
01d0  00 00 00 00 00 00 00 00 00 00 00 00 00 00 00 00   ................
01e0  00 00 00 00 00 00 00 00 00 00 00 00 00 00 00 00   ................
01f0  00 00 00 00 00 00 00 00 00 00 00 00 00 00 00 00   ................
0200  3f 19 fe 69 00 00 00 00 00 00 00 00 00 00 00 00   ?..i............
0210  00 00 00 00 00 00 00 00 00 00 00 00 00 00 00 00   ................
0220  00 00 00 00 00 00 00 00 00 00 00 00 00 00 00 00   ................
0230  00 00 00 00 00 00 00 00 00 00 00 00 00 00 00 00   ................

No.     Time           Source                Destination           Protocol Length Info
  38937 5.983291       2.20.3                host                  USB      576    URB_BULK in

Frame 38937: 576 bytes on wire (4608 bits), 576 bytes captured (4608 bits) on interface usbmon2, id 0
USB URB
    [Source: 2.20.3]
    [Destination: host]
    URB id: 0xffff9beeb9b013c0
    URB type: URB_COMPLETE ('C')
    URB transfer type: URB_BULK (0x03)
    Endpoint: 0x83, Direction: IN
    Device: 20
    URB bus id: 2
    Device setup request: not relevant ('-')
    Data: present ('\0')
    URB sec: 1765889875
    URB usec: 996479
    URB status: Success (0)
    URB length [bytes]: 512
    Data length [bytes]: 512
    [Request in: 38918]
    [Time from request: 0.000883000 seconds]
    [bInterfaceClass: Unknown (0xffff)]
    Unused Setup Header
    Interval: 0
    Start frame: 0
    Copy of Transfer Flags: 0x00000200, Dir IN
    Number of ISO descriptors: 0
Leftover Capture Data […]: 4009c1efadadadadadadadadadadadadadadadadadadadadadadadadadadadadadadadadadadadadadadadadadadadadadadadadadadadadadadadadadadadad4109c1efadadadadadadadadadadadadadadadadadadadadadadadadadadadadadadadadadadadadad

0000  c0 13 b0 b9 ee 9b ff ff 43 03 83 14 02 00 2d 00   ........C.....-.
0010  53 57 41 69 00 00 00 00 7f 34 0f 00 00 00 00 00   SWAi.....4......
0020  00 02 00 00 00 02 00 00 00 00 00 00 00 00 00 00   ................
0030  00 00 00 00 00 00 00 00 00 02 00 00 00 00 00 00   ................
0040  40 09 c1 ef ad ad ad ad ad ad ad ad ad ad ad ad   @...............
0050  ad ad ad ad ad ad ad ad ad ad ad ad ad ad ad ad   ................
0060  ad ad ad ad ad ad ad ad ad ad ad ad ad ad ad ad   ................
0070  ad ad ad ad ad ad ad ad ad ad ad ad ad ad ad ad   ................
0080  41 09 c1 ef ad ad ad ad ad ad ad ad ad ad ad ad   A...............
0090  ad ad ad ad ad ad ad ad ad ad ad ad ad ad ad ad   ................
00a0  ad ad ad ad ad ad ad ad ad ad ad ad ad ad ad ad   ................
00b0  ad ad ad ad ad ad ad ad ad ad ad ad ad ad ad ad   ................
00c0  42 09 c1 ef ad ad ad ad ad ad ad ad ad ad ad ad   B...............
00d0  ad ad ad ad ad ad ad ad ad ad ad ad ad ad ad ad   ................
00e0  ad ad ad ad ad ad ad ad ad ad ad ad ad ad ad ad   ................
00f0  ad ad ad ad ad ad ad ad ad ad ad ad ad ad ad ad   ................
0100  43 09 c1 ef ad ad ad ad ad ad ad ad ad ad ad ad   C...............
0110  ad ad ad ad ad ad ad ad ad ad ad ad ad ad ad ad   ................
0120  ad ad ad ad ad ad ad ad ad ad ad ad ad ad ad ad   ................
0130  ad ad ad ad ad ad ad ad ad ad ad ad ad ad ad ad   ................
0140  44 09 c1 ef ad ad ad ad ad ad ad ad ad ad ad ad   D...............
0150  ad ad ad ad ad ad ad ad ad ad ad ad ad ad ad ad   ................
0160  ad ad ad ad ad ad ad ad ad ad ad ad ad ad ad ad   ................
0170  ad ad ad ad ad ad ad ad ad ad ad ad ad ad ad ad   ................
0180  45 09 c1 ef ad ad ad ad ad ad ad ad ad ad ad ad   E...............
0190  ad ad ad ad ad ad ad ad ad ad ad ad ad ad ad ad   ................
01a0  ad ad ad ad ad ad ad ad ad ad ad ad ad ad ad ad   ................
01b0  ad ad ad ad ad ad ad ad ad ad ad ad ad ad ad ad   ................
01c0  46 09 c1 ef ad ad ad ad ad ad ad ad ad ad ad ad   F...............
01d0  ad ad ad ad ad ad ad ad ad ad ad ad ad ad ad ad   ................
01e0  ad ad ad ad ad ad ad ad ad ad ad ad ad ad ad ad   ................
01f0  ad ad ad ad ad ad ad ad ad ad ad ad ad ad ad ad   ................
0200  47 09 c1 ef ad ad ad ad ad ad ad ad ad ad ad ad   G...............
0210  ad ad ad ad ad ad ad ad ad ad ad ad ad ad ad ad   ................
0220  ad ad ad ad ad ad ad ad ad ad ad ad ad ad ad ad   ................
0230  ad ad ad ad ad ad ad ad ad ad ad ad ad ad ad ad   ................

No.     Time           Source                Destination           Protocol Length Info
  40001 6.000214       2.20.3                host                  USB      576    URB_BULK in

Frame 40001: 576 bytes on wire (4608 bits), 576 bytes captured (4608 bits) on interface usbmon2, id 0
USB URB
    [Source: 2.20.3]
    [Destination: host]
    URB id: 0xffff9beeb9b01f00
    URB type: URB_COMPLETE ('C')
    URB transfer type: URB_BULK (0x03)
    Endpoint: 0x83, Direction: IN
    Device: 20
    URB bus id: 2
    Device setup request: not relevant ('-')
    Data: present ('\0')
    URB sec: 1765889876
    URB usec: 13402
    URB status: Success (0)
    URB length [bytes]: 512
    Data length [bytes]: 512
    [Request in: 39982]
    [Time from request: 0.000872000 seconds]
    [bInterfaceClass: Unknown (0xffff)]
    Unused Setup Header
    Interval: 0
    Start frame: 0
    Copy of Transfer Flags: 0x00000200, Dir IN
    Number of ISO descriptors: 0
Leftover Capture Data […]: 4819fe310000000000000000000000000000000000000000000000000000000000000000000000000000000000000000000000000000000000000000000000004919fe3100000000000000000000000000000000000000000000000000000000000000000000000000

0000  00 1f b0 b9 ee 9b ff ff 43 03 83 14 02 00 2d 00   ........C.....-.
0010  54 57 41 69 00 00 00 00 5a 34 00 00 00 00 00 00   TWAi....Z4......
0020  00 02 00 00 00 02 00 00 00 00 00 00 00 00 00 00   ................
0030  00 00 00 00 00 00 00 00 00 02 00 00 00 00 00 00   ................
0040  48 19 fe 31 00 00 00 00 00 00 00 00 00 00 00 00   H..1............
0050  00 00 00 00 00 00 00 00 00 00 00 00 00 00 00 00   ................
0060  00 00 00 00 00 00 00 00 00 00 00 00 00 00 00 00   ................
0070  00 00 00 00 00 00 00 00 00 00 00 00 00 00 00 00   ................
0080  49 19 fe 31 00 00 00 00 00 00 00 00 00 00 00 00   I..1............
0090  00 00 00 00 00 00 00 00 00 00 00 00 00 00 00 00   ................
00a0  00 00 00 00 00 00 00 00 00 00 00 00 00 00 00 00   ................
00b0  00 00 00 00 00 00 00 00 00 00 00 00 00 00 00 00   ................
00c0  4a 19 fe 31 00 00 00 00 00 00 00 00 00 00 00 00   J..1............
00d0  00 00 00 00 00 00 00 00 00 00 00 00 00 00 00 00   ................
00e0  00 00 00 00 00 00 00 00 00 00 00 00 00 00 00 00   ................
00f0  00 00 00 00 00 00 00 00 00 00 00 00 00 00 00 00   ................
0100  4b 19 fe 31 00 00 00 00 00 00 00 00 00 00 00 00   K..1............
0110  00 00 00 00 00 00 00 00 00 00 00 00 00 00 00 00   ................
0120  00 00 00 00 00 00 00 00 00 00 00 00 00 00 00 00   ................
0130  00 00 00 00 00 00 00 00 00 00 00 00 00 00 00 00   ................
0140  4c 19 fe 31 00 00 00 00 00 00 00 00 00 00 00 00   L..1............
0150  00 00 00 00 00 00 00 00 00 00 00 00 00 00 00 00   ................
0160  00 00 00 00 00 00 00 00 00 00 00 00 00 00 00 00   ................
0170  00 00 00 00 00 00 00 00 00 00 00 00 00 00 00 00   ................
0180  4d 19 fe 31 00 00 00 00 00 00 00 00 00 00 00 00   M..1............
0190  00 00 00 00 00 00 00 00 00 00 00 00 00 00 00 00   ................
01a0  00 00 00 00 00 00 00 00 00 00 00 00 00 00 00 00   ................
01b0  00 00 00 00 00 00 00 00 00 00 00 00 00 00 00 00   ................
01c0  4e 19 fe 31 00 00 00 00 00 00 00 00 00 00 00 00   N..1............
01d0  00 00 00 00 00 00 00 00 00 00 00 00 00 00 00 00   ................
01e0  00 00 00 00 00 00 00 00 00 00 00 00 00 00 00 00   ................
01f0  00 00 00 00 00 00 00 00 00 00 00 00 00 00 00 00   ................
0200  4f 19 fe 31 00 00 00 00 00 00 00 00 00 00 00 00   O..1............
0210  00 00 00 00 00 00 00 00 00 00 00 00 00 00 00 00   ................
0220  00 00 00 00 00 00 00 00 00 00 00 00 00 00 00 00   ................
0230  00 00 00 00 00 00 00 00 00 00 00 00 00 00 00 00   ................

No.     Time           Source                Destination           Protocol Length Info
  42599 6.034516       2.20.3                host                  USB      576    URB_BULK in

Frame 42599: 576 bytes on wire (4608 bits), 576 bytes captured (4608 bits) on interface usbmon2, id 0
USB URB
    [Source: 2.20.3]
    [Destination: host]
    URB id: 0xffff9beeb9b01540
    URB type: URB_COMPLETE ('C')
    URB transfer type: URB_BULK (0x03)
    Endpoint: 0x83, Direction: IN
    Device: 20
    URB bus id: 2
    Device setup request: not relevant ('-')
    Data: present ('\0')
    URB sec: 1765889876
    URB usec: 47704
    URB status: Success (0)
    URB length [bytes]: 512
    Data length [bytes]: 512
    [Request in: 42580]
    [Time from request: 0.000891000 seconds]
    [bInterfaceClass: Unknown (0xffff)]
    Unused Setup Header
    Interval: 0
    Start frame: 0
    Copy of Transfer Flags: 0x00000200, Dir IN
    Number of ISO descriptors: 0
Leftover Capture Data […]: 5009c2b7adadadadadadadadadadadadadadadadadadadadadadadadadadadadadadadadadadadadadadadadadadadadadadadadadadadadadadadadadadadad5109c2b7adadadadadadadadadadadadadadadadadadadadadadadadadadadadadadadadadadadadad

